:100000000C945D000C9485000C9485000C94850084
:100010000C9485000C9485000C9485000C9485004C
:100020000C9485000C9485000C9485000C9485003C
:100030000C9485000C94A3020C9485000C9485000C
:100040000C9401020C9485000C9471020C944B02E8
:100050000C9485000C9485000C9485000C9485000C
:100060000C9485000C94850000000008000201003B
:100070000003040700000000000000000000000072
:10008000250028002B0000000000240027002A0083
:10009000040404040404040402020202020203032E
:1000A0000303030301020408102040800102040836
:1000B0001020010204081020D10411241FBECFEF2C
:1000C000D8E0DEBFCDBF11E0A0E0B1E0E8ECFEE09B
:1000D00002C005900D92A232B107D9F721E0A2E249
:1000E000B1E001C01D92A93CB207E1F710E0CDE5F7
:1000F000D0E004C02197FE010E945C07CC35D107F7
:10010000C9F70E94C8020C9462070C940000EDEA43
:10011000F0E02491E9E9F0E08491882399F090E0FF
:10012000880F991FFC01EA57FF4FA591B491FC017C
:10013000E458FF4F859194918FB7F894EC91E22B9E
:10014000EC938FBF0895AF92BF92CF92DF92EF9260
:10015000FF920F931F93CF93DF936C017B018B0171
:10016000040F151FEB015E01AE18BF08C017D107C1
:1001700059F06991D601ED91FC910190F081E02D4B
:10018000C6010995892B79F7C501DF91CF911F91A0
:100190000F91FF90EF90DF90CF90BF90AF900895B8
:1001A000FC01538D448D252F30E0842F90E0821B7D
:1001B000930B541710F0CF96089501970895FC0102
:1001C000918D828D981761F0A28DAE0FBF2FB11D5A
:1001D0005D968C91928D9F5F9F73928F90E00895B2
:1001E0008FEF9FEF0895FC01918D828D981731F06C
:1001F000828DE80FF11D858D90E008958FEF9FEFC0
:100200000895FC01918D228D892F90E0805C9F4F95
:10021000821B91098F73992708958CE291E00E94C7
:10022000010121E0892B09F420E0822F089580E06C
:1002300090E0892B29F00E940D0181110C9400009F
:100240000895FC01A48DA80FB92FB11DA35ABF4F6B
:100250002C91848D90E001968F739927848FA689C5
:10026000B7892C93A089B1898C91837080648C9319
:10027000938D848D981306C00288F389E02D8081C8
:100280008F7D80830895EF92FF920F931F93CF93FA
:10029000DF93EC0181E0888F9B8D8C8D98131AC0C1
:1002A000E889F989808185FF15C09FB7F894EE89A8
:1002B000FF896083E889F989808183708064808305
:1002C0009FBF81E090E0DF91CF911F910F91FF9050
:1002D000EF900895F62E0B8D10E00F5F1F4F0F73F8
:1002E0001127E02E8C8D8E110CC00FB607FCFACFB3
:1002F000E889F989808185FFF5CFCE010E9421012F
:10030000F1CFEB8DEC0FFD2FF11DE35AFF4FF08283
:100310009FB7F8940B8FEA89FB8980818062CFCFE9
:10032000CF93DF93EC01888D8823B9F0AA89BB892C
:10033000E889F9898C9185FD03C0808186FD0DC017
:100340000FB607FCF7CF8C9185FFF2CF808185FF38
:10035000EDCFCE010E942101E9CFDF91CF91089529
:10036000FC0101900020E9F73197AF01481B590BC0
:10037000BC018CE291E00C94A3008F929F92AF920B
:10038000BF920F931F93CF93DF93CDB7DEB7A197A3
:100390000FB6F894DEBF0FBECDBF19A2423008F4ED
:1003A0004AE08E010F5D1F4F842E912CB12CA12CA1
:1003B000A50194010E943A07E62FB901CA01EA306B
:1003C000F4F4E05DD801EE938D01232B242B252B33
:1003D00079F790E080E0109719F0CD010E94B0010C
:1003E000A1960FB6F894DEBF0FBECDBFDF91CF91BF
:1003F0001F910F91BF90AF909F908F900895E95CEF
:10040000E1CF1F920F920FB60F9211242F933F93BB
:100410008F939F93AF93BF9380912801909129016F
:10042000A0912A01B0912B013091270123E0230FE5
:100430002D3758F50196A11DB11D209327018093FA
:10044000280190932901A0932A01B0932B01809158
:10045000230190912401A0912501B09126010196DC
:10046000A11DB11D8093230190932401A093250128
:10047000B0932601BF91AF919F918F913F912F91A2
:100480000F900FBE0F901F90189526E8230F02962D
:10049000A11DB11DD2CF1F920F920FB60F92112442
:1004A0002F933F934F935F936F937F938F939F937C
:1004B000AF93BF93EF93FF938CE291E00E942101F1
:1004C000FF91EF91BF91AF919F918F917F916F912C
:1004D0005F914F913F912F910F900FBE0F901F9002
:1004E00018951F920F920FB60F9211242F938F938E
:1004F0009F93EF93FF93E0913C01F0913D01808148
:10050000E0914201F091430182FD1BC090818091F6
:1005100045018F5F8F7320914601821741F0E09172
:100520004501F0E0E45DFE4F958F80934501FF911A
:10053000EF919F918F912F910F900FBE0F901F9071
:1005400018958081F4CF1F920F920FB60F9211244D
:100550002F933F934F935F936F937F938F939F93CB
:10056000AF93BF93EF93FF93F0E0E0E00995FF9125
:10057000EF91BF91AF919F918F917F916F915F911B
:100580004F913F912F910F900FBE0F901F90189594
:10059000789484B5826084BD84B5816084BD85B55E
:1005A000826085BD85B5816085BD80916E0081606A
:1005B00080936E0010928100809181008260809310
:1005C0008100809181008160809381008091800012
:1005D0008160809380008091B10084608093B1003D
:1005E0008091B00081608093B00080917A00846037
:1005F00080937A0080917A00826080937A00809163
:100600007A00816080937A0080917A00806880937C
:100610007A001092C100E0913C01F0913D0182E02E
:100620008083E0913801F09139011082E0913A0124
:10063000F0913B0190E1908310924401E0914001E0
:10064000F091410186E08083E0913E01F0913F010D
:10065000808180618083E0913E01F0913F01808143
:1006600088608083E0913E01F0913F018081806845
:100670008083E0913E01F0913F0180818F7D8083F6
:10068000909381001092800081E08093220180E2AB
:1006900093E0909387008093860081E180938100AE
:1006A0000E94870080918000806880938000109273
:1006B00089001092880080912201806180938100DE
:1006C000CFEFD1E033243A9490E4292E00E010E0FB
:1006D0000E948700E1E7F0E08491833009F491C043
:1006E00068F5813009F43CC0823009F485C0E1E747
:1006F000F0E08491EDEAF0E09491E9E9F0E02491F2
:10070000222391F1882359F0833009F49FC008F027
:1007100092C0813009F4A0C0823009F4A1C0E22F58
:10072000F0E0EE0FFF1FE458FF4FA591B4918FB793
:10073000F8942C91922B9C938FBF16C0873009F4AC
:100740006AC0883009F46FC0843089F680918000D7
:10075000806280938000D0938B00C0938A0004C095
:1007600084B5806884BD37BC20927C0080917A007B
:10077000806480937A0080917A0086FDFCCF80911E
:10078000780060917900762F682F072E000C880B77
:10079000990B0E94130620E030E040EA50E40E94EA
:1007A000C80620E030EC4FE754E40E94700520E0DA
:1007B00030E040EC50E40E94C8066B017C014B0124
:1007C0005C01AC019B010E943507882309F455C0E8
:1007D00082E191E00E94B0018EE191E00E94B001BF
:1007E0000115110509F474CF0E940D01882309F445
:1007F0006FCF0E9400006CCF84B5806284BD38BC8E
:10080000B3CF80918000806880938000D09389006E
:10081000C0938800A9CF8091B00080688093B00019
:100820003092B300A1CF8091B00080628093B0007D
:100830003092B40099CF8730B1F08830D1F0843055
:1008400009F06DCF809180008F7D03C08091800082
:100850008F778093800063CF84B58F7784BD5FCF1F
:1008600084B58F7DFBCF8091B0008F778093B000EF
:1008700056CF8091B0008F7DF9CF26013701E894E3
:1008800077F82FEF3FEF4FE75FE7C301B2010E9418
:10089000350781110DC02FEF3FEF4FE75FE7C30131
:1008A000B2010E946B0518161CF486E191E092CF0C
:1008B0002FEF3FEF4FE75FE4C701B6010E94C30689
:1008C00018161CF48AE191E085CF2FEF3FEF4FE738
:1008D0005FECC701B6010E946B0587FDF3CF20E0F6
:1008E00030E0A901C701B6010E946B0587FF0BC06C
:1008F0006DE28CE291E00E94430146015701B7FA94
:10090000B094B7F8B0942AE037ED43EA5BE3C50151
:10091000B4010E94FF044B015C010E94E2056B01DF
:100920007C010E9411069B01AC01C501B4010E942B
:10093000FE044B015C014AE0C701B6010E94BD0103
:100940006EE28CE291E00E94430120E030E040E260
:1009500051E4C501B4010E94C8064B015C010E942C
:10096000E2056B01F12CE12C4AE0C701B6010E94BF
:10097000BD01C701B6010E9411069B01AC01C50172
:10098000B4010E94FE0420E030E040E251E40E9405
:10099000C8060E94E20590E080E04AE00E94BD01A6
:1009A0001BCFECE2F1E01382128288EE93E0A0E02C
:1009B000B0E084839583A683B78384E091E091833C
:1009C000808385EC90E09587848784EC90E097871E
:1009D000868780EC90E0918B808B81EC90E0938B0C
:1009E000828B82EC90E0958B848B86EC90E0978BE9
:1009F000868B118E128E138E148E08955058BB273D
:100A0000AA270E9416050C9489060E947B0638F0DE
:100A10000E94820620F039F49F3F19F426F40C94CA
:100A200078060EF4E095E7FB0C947206E92F0E941D
:100A30009A0658F3BA17620773078407950720F0E0
:100A400079F4A6F50C94BC060EF4E0950B2EBA2FA3
:100A5000A02D0B01B90190010C01CA01A0011124C4
:100A6000FF27591B99F0593F50F4503E68F11A1670
:100A7000F040A22F232F342F4427585FF3CF469501
:100A800037952795A795F0405395C9F77EF41F1623
:100A9000BA0B620B730B840BBAF09150A1F0FF0FED
:100AA000BB1F661F771F881FC2F70EC0BA0F621FD9
:100AB000731F841F48F4879577956795B795F795C9
:100AC0009E3F08F0B0CF9395880F08F09927EE0F5E
:100AD0009795879508950E944E0608F481E0089541
:100AE0000E9484050C9489060E94820658F00E9498
:100AF0007B0640F029F45F3F29F00C9472065111F7
:100B00000C94BD060C9478060E949A0668F399230B
:100B1000B1F3552391F3951B550BBB27AA276217F9
:100B20007307840738F09F5F5F4F220F331F441F06
:100B3000AA1FA9F335D00E2E3AF0E0E832D091503A
:100B40005040E695001CCAF72BD0FE2F29D0660F27
:100B5000771F881FBB1F261737074807AB07B0E86A
:100B600009F0BB0B802DBF01FF2793585F4F3AF070
:100B70009E3F510578F00C9472060C94BD065F3FC1
:100B8000E4F3983ED4F3869577956795B795F795F6
:100B90009F5FC9F7880F911D9695879597F90895DE
:100BA000E1E0660F771F881FBB1F6217730784077A
:100BB000BA0720F0621B730B840BBA0BEE1F88F789
:100BC000E09508950E94A20688F09F5798F0B92FEB
:100BD0009927B751B0F0E1F0660F771F881F991F72
:100BE0001AF0BA95C9F714C0B13091F00E94BC0652
:100BF000B1E008950C94BC06672F782F8827B85F62
:100C000039F0B93FCCF3869577956795B395D9F7C9
:100C10003EF490958095709561957F4F8F4F9F4FD3
:100C20000895E89409C097FB3EF4909580957095DF
:100C300061957F4F8F4F9F4F9923A9F0F92F96E928
:100C4000BB279395F695879577956795B795F1119D
:100C5000F8CFFAF4BB0F11F460FF1BC06F5F7F4F3A
:100C60008F4F9F4F16C0882311F096E911C077234C
:100C700021F09EE8872F762F05C0662371F096E855
:100C8000862F70E060E02AF09A95660F771F881F24
:100C9000DAF7880F9695879597F90895990F0008C8
:100CA000550FAA0BE0E8FEEF16161706E807F9073E
:100CB000C0F012161306E407F50798F0621B730BD9
:100CC000840B950B39F40A2661F0232B242B252B5A
:100CD00021F408950A2609F4A140A6958FEF811DFD
:100CE000811D089597F99F6780E870E060E008959E
:100CF0009FEF80EC089500240A9416161706180634
:100D00000906089500240A9412161306140605060F
:100D10000895092E0394000C11F4882352F0BB0FA0
:100D200040F4BF2B11F460FF04C06F5F7F4F8F4F03
:100D30009F4F089557FD9058440F551F59F05F3F3E
:100D400071F04795880F97FB991F61F09F3F79F0ED
:100D500087950895121613061406551FF2CF46956F
:100D6000F1DF08C0161617061806991FF1CF8695F1
:100D70007105610508940895E894BB2766277727D5
:100D8000CB0197F908950E944E0608F48FEF08955D
:100D90000E94DB060C9489060E947B0638F00E94B4
:100DA000820620F0952311F00C9472060C947806BC
:100DB00011240C94BD060E949A0670F3959FC1F30E
:100DC000950F50E0551F629FF001729FBB27F00DF9
:100DD000B11D639FAA27F00DB11DAA1F649F66274E
:100DE000B00DA11D661F829F2227B00DA11D621F9D
:100DF000739FB00DA11D621F839FA00D611D221F57
:100E0000749F3327A00D611D231F849F600D211D3A
:100E1000822F762F6A2F11249F5750409AF0F1F0BD
:100E200088234AF0EE0FFF1FBB1F661F771F881F26
:100E300091505040A9F79E3F510580F00C947206E6
:100E40000C94BD065F3FE4F3983ED4F38695779506
:100E50006795B795F795E7959F5FC1F7FE2B880FCC
:100E6000911D9695879597F908950E944E06880BD7
:100E7000990B0895A1E21A2EAA1BBB1BFD010DC000
:100E8000AA1FBB1FEE1FFF1FA217B307E407F5073A
:100E900020F0A21BB30BE40BF50B661F771F881F16
:100EA000991F1A9469F760957095809590959B01AC
:100EB000AC01BD01CF010895EE0FFF1F0590F49125
:080EC000E02D0994F894FFCF26
:100EC800000000004301A300D00090010101DF00F1
:100ED800F3006E616E00696E66006F7666000D0A3B
:020EE800000008
:00000001FF
