:100000000C945E000C9486000C9486000C94860080
:100010000C9486000C9486000C9486000C94860048
:100020000C9486000C9486000C9486000C94860038
:100030000C9486000C94360B0C9486000C9486006D
:100040000C94CD090C9486000C949B090C947509B2
:100050000C9486000C9486000C9486000C94860008
:100060000C94170A0C94860000000000240027005E
:100070002A0000000000250028002B0004040404CE
:100080000404040402020202020203030303030342
:10009000010204081020408001020408102001021F
:1000A00004081020000000080002010000030407FB
:1000B00000000000000000005B0B4C0F11241FBE6D
:1000C000CFEFD8E0DEBFCDBF11E0A0E0B1E0EEEEB3
:1000D000F5E202C005900D92AC33B107D9F722E0EA
:1000E000ACE3B1E001C01D92AF3DB207E1F710E013
:1000F000CDE5D0E004C02197FE010E94BF11CC35B0
:10010000D107C9F70E94CC0B0C94EA120C940000A2
:1001100008950895AF92BF92CF92DF92EF92FF922F
:100120000F931F93CF93DF936C017B018B01040F1F
:10013000151FEB015E01AE18BF08C017D10759F0BB
:100140006991D601ED91FC910190F081E02DC601FD
:100150000995892B79F7C501DF91CF911F910F91F7
:10016000FF90EF90DF90CF90BF90AF900895FC018B
:10017000538D448D252F30E0842F90E0821B930B0C
:10018000541710F0CF96089501970895FC01918DB2
:10019000828D981761F0A28DAE0FBF2FB11D5D96B5
:1001A0008C91928D9F5F9F73928F90E008958FEF57
:1001B0009FEF0895FC01918D828D981731F0828D0B
:1001C000E80FF11D858D90E008958FEF9FEF089562
:1001D000FC01918D228D892F90E0805C9F4F821BC6
:1001E00091098F739927089582E092E00E94E800B8
:1001F00021E0892B09F420E0822F089580E090E02F
:10020000892B29F00E94F40081110C9400000895BC
:10021000FC01A48DA80FB92FB11DA35ABF4F2C917B
:10022000848D90E001968F739927848FA689B78972
:100230002C93A089B1898C91837080648C93938D69
:10024000848D981306C00288F389E02D80818F7D0C
:1002500080830895EF92FF920F931F93CF93DF93C4
:10026000EC0181E0888F9B8D8C8D98131AC0E889F2
:10027000F989808185FF15C09FB7F894EE89FF89C1
:100280006083E889F98980818370806480839FBF5F
:1002900081E090E0DF91CF911F910F91FF90EF905F
:1002A0000895F62E0B8D10E00F5F1F4F0F7311276F
:1002B000E02E8C8D8E110CC00FB607FCFACFE889AA
:1002C000F989808185FFF5CFCE010E940801F1CF29
:1002D000EB8DEC0FFD2FF11DE35AFF4FF0829FB71E
:1002E000F8940B8FEA89FB8980818062CFCFCF930E
:1002F000DF93EC01888D8823B9F0AA89BB89E8894E
:10030000F9898C9185FD03C0808186FD0DC00FB6F3
:1003100007FCF7CF8C9185FFF2CF808185FFEDCF71
:10032000CE010E940801E9CFDF91CF91089590E0BE
:10033000FC01EC55FF4F2491FC01E057FF4F349135
:10034000FC01E458FF4FE491EE23C9F0222339F079
:10035000233001F1A8F4213019F1223029F1F0E025
:10036000EE0FFF1FEE58FF4FA591B4918FB7F89491
:10037000EC91611126C030953E233C938FBF0895C8
:100380002730A9F02830C9F0243049F78091800047
:100390008F7D03C0809180008F7780938000DFCFB6
:1003A00084B58F7784BDDBCF84B58F7DFBCF809103
:1003B000B0008F778093B000D2CF8091B0008F7D56
:1003C000F9CF3E2BDACFCF93DF9390E0FC01E057DB
:1003D000FF4F249184589F4FFC0184918823D1F0D2
:1003E00090E0880F991FFC01E859FF4FA591B49147
:1003F000FC01EE58FF4FC591D49161110EC09FB71B
:10040000F8948C91E22FE0958E238C932881E2233F
:10041000E8839FBFDF91CF9108958FB7F894EC9157
:10042000E22BEC938FBFF6CF8230910538F0880F26
:10043000991F880F991F05970197F1F708953FB706
:10044000F8948091A5019091A601A091A701B09187
:10045000A80126B5A89B05C02F3F19F00196A11D44
:10046000B11D3FBFBA2FA92F982F8827BC01CD01FE
:10047000620F711D811D911D42E0660F771F881F5D
:10048000991F4A95D1F7089520917D01260F3327B2
:10049000331F21323105ECF42091D801FC0190E0AA
:1004A00080E0243069F082E00895A0917D012191DF
:1004B000AC01435A5E4FA40FB52FB11D2C9301968A
:1004C000861798F380917D01680F60937D0180E02D
:1004D000089581E008951092D80181E08093D701BA
:1004E0001092B20161E082E10E94970161E083E134
:1004F0000E949701E9EBF0E080818E7F808380810C
:100500008D7F808388E48093B80085E48093BC006D
:100510000895CF93DF9391E090935C018823B9F025
:10052000C091B800D091BA008091BC008A7B8093C2
:10053000BC0060E082E10E94970160E083E10E94DC
:1005400097010E946B02D093BA00C093B800DF916C
:10055000CF9108958F929F92AF92BF92CF92DF92E8
:10056000EF92FF920F931F93CF93DF93D0910102ED
:10057000D13208F0D7C0182FC09100020E941F028C
:100580006B017C018091D80181116BC082E0809366
:10059000D8011093D7018FEF8093D6011092D50127
:1005A000D093D401A0EEB1E0E4EBF1E080E0D81309
:1005B00091C01092B3018091B301CC0FC82BC093AE
:1005C000B3018091B201813009F088C01092B2016C
:1005D0000E941F026B017C018091B3018093BB00DC
:1005E0008091DA019091DB01A091DC01B091DD01F5
:1005F000892B8A2B8B2BA1F00E941F020091DA011C
:100600001091DB012091DC013091DD016C197D0935
:100610008E099F09061717072807390708F442C0F3
:100620008091BC0083FDD8CF85EC8093BC000E94F4
:100630001F026B017C018091D801823009F450C007
:100640008091D6018F3F09F46FC08091D60180322E
:1006500009F46CC08091D601803309F469C084E04C
:1006600026C08091DA019091DB01A091DC01B0916C
:10067000DD01892B8A2B8B2B09F484CF0E941F026A
:100680008090DA019090DB01A090DC01B090DD0158
:100690006C197D098E099F0986169706A806B9066A
:1006A00008F070CF8091D9010E94890285E01092F4
:1006B000DF01109201021092DE01DF91CF911F91B4
:1006C0000F91FF90EF90DF90CF90BF90AF909F90F1
:1006D0008F9008959D9191938F5F69CF85EEA5CFFF
:1006E0008091DA019091DB01A091DC01B091DD01F4
:1006F000892B8A2B8B2B09F49ECF0E941F0200911D
:10070000DA011091DB012091DC013091DD016C19DF
:100710007D098E099F09061717072807390708F072
:100720008ACFC0CF81E0C3CF80E0C1CF82E0BFCF0E
:1007300083E0BDCF0895E091AE018091AD01E8174F
:1007400030F4F0E0E45CFE4F808190E008958FEF9C
:100750009FEF08959091AE018091AD012FEF3FEF93
:10076000981748F4E92FF0E0E45CFE4F208130E078
:100770009F5F9093AE01C90108958091AD01909162
:10078000AE01891B990B0895CF92DF92EF92FF92F1
:100790000F931F93CF93DF937C01CB018A012091AC
:1007A000DE01222389F0EB016B01C40ED51ECC15AE
:1007B000DD0569F06991D701ED91FC910190F0811F
:1007C000E02DC7010995F3CF642F0E944402C801B0
:1007D000DF91CF911F910F91FF90EF90DF90CF901D
:1007E0000895CF93DF931F92CDB7DEB76983209131
:1007F000DE012223F9F020910102203258F021E09D
:1008000030E0FC013383228390E080E00F90DF91A1
:10081000CF9108958091DF01E82FF0E0E052FE4F84
:10082000998190838F5F8093DF018093010281E043
:1008300090E0ECCF61E0CE0101960E944402F7CF38
:1008400090E080E00895FC0183858F3F19F061E01E
:100850000C9497010895FC0180819181892B39F0D6
:10086000A281B3819C9111968C919CBD8DBD838595
:100870008F3F19F060E00C9497010895AF92BF92FA
:10088000CF92DF92EF92FF920F931F93CF93DF935C
:10089000EC0188819981892B89F06EBD0DB407FE2A
:1008A000FDCFBEB48B2DDF91CF911F910F91FF90A3
:1008B000EF90DF90CF90BF90AF9008958885998595
:1008C00011E0892B09F010E8AA24A394862F812334
:1008D00009F0A12C062F2C813D814E815F8160E2C1
:1008E00071EA87E090E00E948E11F22EB02EE12C8A
:1008F000C22ED12CFF2019F0C6010E9414028A8555
:10090000877F09F042C08D858F3F89F0902F91231A
:1009100081E009F480E08A1551F0EF85F8898F892C
:10092000992369F19081892B8083AA24A394E98972
:10093000FA898081998D892B8083FF2019F0C60167
:100940000E9414028E858F3F39F0EB89FC898081EB
:10095000988D892309F0E12AE989FA899081898DA6
:100960008095892380838E858F3F09F0BE2C8885F2
:100970009985892BB9F5110F1111BCCF93CF9081B7
:10098000809589238083A12CD2CFE989FA8980813F
:10099000998D892B8083FF2019F0C6010E941402D3
:1009A0008D858F3F49F0EF85F8898F89902F9123AE
:1009B000A9F09081892B8083E989FA899081898DBA
:1009C0008095892380838E858F3F69F2EB89FC892E
:1009D0008081988D892339F2E12AC5CF9081809555
:1009E0008923E9CF1695C8CF8F929F92AF92BF927D
:1009F000CF92DF92EF92FF920F931F93CF93DF93EB
:100A00007C014B016A01B22EA32E0E942B04E4014B
:100A1000C80CD91CCC15DD0569F4CB2DDA2D0C0FD3
:100A20001D1FC017D10759F06FEFC7010E943E0488
:100A30008993F7CF6991C7010E943E04EBCFC701AC
:100A40000E94230481E0DF91CF911F910F91FF90CD
:100A5000EF90DF90CF90BF90AF909F908F900895D0
:100A60008F929F92AF92BF92CF92DF92EF92FF92BE
:100A70000F931F93CF93DF937C01B62EA72E6A01AD
:100A800049010E942B04E401080D191DC017D1076C
:100A900061F4CB2DDA2DCC0EDD1ECC15DD0551F029
:100AA0006991C7010E943E04F8CF6991C7010E9475
:100AB0003E04ECCFC7010E94230481E0DF91CF9177
:100AC0001F910F91FF90EF90DF90CF90BF90AF906C
:100AD0009F908F9008951F93CF93DF93EA01122F79
:100AE000DC0111968D919C91DC01ED91FC910280CD
:100AF000F381E02D0995C817D90729F4812F0E94A9
:100B0000AA0291E0811190E0892FDF91CF911F918E
:100B10000895CF92DF92EF92FF920F931F93CF939E
:100B2000DF9300D0CDB7DEB7FC014787508B618BD8
:100B3000728B8285882371F14487452F562F672F4A
:100B40007727882349F143877F018BE0E80EF11C6A
:100B50009681878199838A83C080D180C114D10412
:100B600009F443C0018510E098012E5F3F4FD60184
:100B700014968D919C918217930780F480E00F90DA
:100B80000F90DF91CF911F910F91FF90EF90DF9029
:100B9000CF9008954387D1CF4487D6CFF601818186
:100BA0009281208131E03093DE0120930002109287
:100BB000DF01109201020115110541F421E042E02C
:100BC00050E0B701C6010E946B05D9CFDC01ED9161
:100BD000FC910280F381E02DA801BE016F5F7F4F81
:100BE00009950817190751F6E9CFA281B38110972B
:100BF00029F224813581018510E02330310579F413
:100C00008E7F89839A830F5F1F4F9E012F5F3F4F17
:100C100042E050E0B701CD010E943005B0CF211570
:100C2000310519F49F779983F0CF2230310511F403
:100C30009068F9CF2130310541F79F779064F3CF69
:100C4000CF93DF93EC018B818823A1F0888191E021
:100C50009093DE01809300021092DF011092010256
:100C600081E00E94AA0291E0811190E0892FDF913A
:100C7000CF9108951092AE011092AD011092DF0154
:100C8000109201020E946B0288E890E09093AC0100
:100C90008093AB0189E890E09093AA018093A90129
:100CA00081E08B83CE010E942006982F8111CECF48
:100CB000DDCF2F923F924F925F926F927F928F92F1
:100CC0009F92AF92BF92CF92DF92EF92FF920F93DB
:100CD0001F93CF93DF9300D000D000D0CDB7DEB705
:100CE0007C017C836B830B969E838D83D701169644
:100CF0009C91169717968C91179799838A836D907C
:100D00007C9011976114710409F44CC119964C91AF
:100D100050E0F3018481958184179507A8F08081C4
:100D200091E09093DE01809300021092DF01109217
:100D3000010220E0BE016F5F7F4FC3010E946B057F
:100D4000D12CC12C81111AC080E026960FB6F894E0
:100D5000DEBF0FBECDBFDF91CF911F910F91FF90EE
:100D6000EF90DF90CF90BF90AF909F908F907F904B
:100D70006F905F904F903F902F900895D3011496FD
:100D80008D919C9102E010E00C191D0980179107CC
:100D900008F48C01F30150800E941F024B015C019A
:100DA0008091D801811176C0B02EF0E2F01710F4D6
:100DB00040E2B42E81E08093D80121E082E090E00F
:100DC000801B910BC816D90608F420E02093D701A8
:100DD0009FEF9093D6011092D5018FEF8B0D8093EA
:100DE000D401A1E0A093B3018091B301550C582A1E
:100DF0005092B3018091B201813009F093C01092FA
:100E0000B2010E941F021B012C018091B30180934B
:100E1000BB008091DA019091DB01A091DC01B091DF
:100E2000DD01892B8A2B8B2BA1F00E941F022091C0
:100E3000DA013091DB014091DC015091DD01621952
:100E4000730984099509261737074807590708F4D5
:100E500042C08091BC0083FDD8CFB5ECB093BC00FC
:100E60000E941F021B012C018091D801813009F4DE
:100E70005DC08091D5018B1510F4B090D501A4EB25
:100E8000B1E0ECE3F1E080E08B1551F19D9191939D
:100E90008F5FFACF8091DA019091DB01A091DC01A4
:100EA000B091DD01892B8A2B8B2B09F479CF0E941D
:100EB0001F022091DA013091DB014091DC01509159
:100EC000DD01681979098A099B0926173707480740
:100ED000590708F065CF8091D9010E948902B12C91
:100EE0001092AE01B092AD01B016110609F02CCFF0
:100EF0008D809E808C0C9D1C5401C5018819990918
:100F000080179107A8F5D30111968D919C91DC0172
:100F1000ED91FC910284F385E02D0995F501819313
:100F20005F01EBCFE5EEE093BC009ACF8091DA0150
:100F30009091DB01A091DC01B091DD01892B8A2B1E
:100F40008B2B09F491CF0E941F022091DA0130917E
:100F5000DB014091DC015091DD01621973098409C4
:100F60009509261737074807590708F07DCFB3CFF3
:100F7000C00ED11EF2E0CF16D10408F4FFCEF70167
:100F80008285811142C0848590E0982F8827AB81AB
:100F9000BC8111969C938E932385822B8D939C9379
:100FA00081E0D3CE1296ED91FC911397309709F41E
:100FB000CBCE14962D913C91159719964C9150E0FB
:100FC0002330310591F4816089839A834F5F5F4FAD
:100FD00002E010E02D813E81BE016F5F7F4FCF01A7
:100FE0000E94F4048111CBCFB0CE2115310519F444
:100FF00090689983EDCF2230310511F49F77F9CFB6
:101000002130310529F7906CF4CF838590E0982F3B
:101010008827AB81BC8111969C938E932485BDCF8C
:10102000FC0101900020E9F73197AF01481B590BF3
:10103000BC0182E092E00C948A008F929F92AF9262
:10104000BF920F931F93CF93DF93CDB7DEB7A197D6
:101050000FB6F894DEBF0FBECDBF19A2423008F420
:101060004AE08E010F5D1F4F842E912CB12CA12CD4
:10107000A50194010E948E11E62FB901CA01EA3040
:10108000F4F4E05DD801EE938D01232B242B252B66
:1010900079F790E080E0109719F0CD010E941008D8
:1010A000A1960FB6F894DEBF0FBECDBFDF91CF91F2
:1010B0001F910F91BF90AF909F908F900895E95C22
:1010C000E1CF4F925F926F927F928F929F92AF92F9
:1010D000BF92CF92DF92EF92FF920F931F93CF9325
:1010E0006B017C01742EAC019B010E948911882345
:1010F00099F08AE291E0CF911F910F91FF90EF90CC
:10110000DF90CF90BF90AF909F908F907F906F9027
:101110005F904F900C94100846015701E894B7F87F
:101120002FEF3FEF4FE75FE7C501B4010E94891140
:1011300081110DC02FEF3FEF4FE75FE7C501B4010D
:101140000E94BF0F18161CF48EE291E0D4CF2FEF4F
:101150003FEF4FE75FE4C701B6010E941711181671
:101160001CF482E391E0C7CF2FEF3FEF4FE75FEC36
:10117000C701B6010E94BF0F87FDF3CF20E030E02A
:10118000A901C701B6010E94BF0F10E000E087FF70
:101190000AC06DE282E092E00E942A018C01F7FA17
:1011A000F094F7F8F094C0E060E070E080E09FE336
:1011B0007C1641F020E030E040E251E40E94C40F90
:1011C000CF5FF6CFA70196010E94530F2B013C0180
:1011D0000E9436104B015C014AE00E941D087C0110
:1011E000E00EF11ECC23C1F1C501B4010E946510CF
:1011F0009B01AC01C301B2010E94520F4B015C0183
:101200006EE282E092E00E942A01E80EF91EC150CF
:1012100018F120E030E040E251E4C501B4010E9441
:101220001C112B013C010E9436104B01B12CA12C4A
:101230004AE0C501B4010E941D08E80EF91EC5016F
:10124000B4010E9465109B01AC01C301B2010E9470
:10125000520F4B015C01DBCFC701CF911F910F9162
:10126000FF90EF90DF90CF90BF90AF909F908F90C6
:101270007F906F905F904F90089585ED8093BC00B4
:101280008091DA019091DB01A091DC01B091DD0148
:101290000796A11DB11D23E0B695A7959795879553
:1012A0002A95D1F72091BC0024FD03C01092D801EB
:1012B00008954091DA015091DB016091DC01709159
:1012C000DD01452B462B472B69F30097A105B1059E
:1012D00041F025E32A95F1F700000197A109B10932
:1012E000E1CF8091D9010C9489021F920F920FB621
:1012F0000F9211242F933F934F935F936F937F939C
:101300008F939F93AF93BF93EF93FF9382E092E00D
:101310000E940801FF91EF91BF91AF919F918F9132
:101320007F916F915F914F913F912F910F900FBEE1
:101330000F901F9018951F920F920FB60F921124C5
:101340002F938F939F93EF93FF93E0911202F0916D
:1013500013028081E0911802F091190282FD1BC0F6
:10136000908180911B028F5F8F7320911C028217E6
:1013700041F0E0911B02F0E0EE5FFD4F958F80930E
:101380001B02FF91EF919F918F912F910F900FBEB4
:101390000F901F9018958081F4CF1F920F920FB677
:1013A0000F9211242F933F938F939F93AF93BF93EB
:1013B0008091A1019091A201A091A301B091A401FB
:1013C0003091A00123E0230F2D3758F50196A11D80
:1013D000B11D2093A0018093A1019093A201A0933D
:1013E000A301B093A4018091A5019091A601A091C1
:1013F000A701B091A8010196A11DB11D8093A5017F
:101400009093A601A093A701B093A801BF91AF91BB
:101410009F918F913F912F910F900FBE0F901F9032
:10142000189526E8230F0296A11DB11DD2CF1F9259
:101430000F920FB60F9211242F933F934F935F9308
:101440006F937F938F939F93AF93BF93EF93FF938C
:101450008091B900887F803609F44AC0F0F588325F
:1014600009F4A7C018F5803109F49BC0B8F48823AB
:1014700009F4F9C0883009F494C0FF91EF91BF914D
:10148000AF919F918F917F916F915F914F913F911C
:101490002F910F900FBE0F901F901895883109F46F
:1014A00088C0803251F78093D60114C0803409F48B
:1014B0009DC040F48033B9F38833F9F68093D601A8
:1014C00085ECB0C0803509F485C0883509F496C034
:1014D000883499F60E943D09D0CF883909F48CC030
:1014E00038F5883729F050F4883611F0803729F61E
:1014F00083E08093D80110929F0157C0883809F487
:101500007BC0803919F0803809F0B7CF80919F01F6
:10151000803208F071C0E0919F0181E08E0F8093CE
:101520009F018091BB00F0E0E158FE4F80833DC0F9
:10153000803B39F0E0F4803A09F479C0883A09F048
:101540009CCF84E08093D80110927E0110927D019F
:10155000E091AB01F091AC01099580917D01811181
:101560000FC081E080937D0110925D0109C0803C35
:1015700009F4A6CF883C09F4A3CF883B09F07DCFBE
:10158000E0917E0181E08E0F80937E01F0E0E35ACE
:10159000FE4F80818093BB0090917E0180917D0100
:1015A00029C08091B3018093BB0085EC8093BC007F
:1015B00064CF9091D5018091D401981758F5E091AE
:1015C000D50181E08E0F8093D501F0E0EC54FE4F01
:1015D0008081E9CFE091D50181E08E0F8093D50124
:1015E0008091BB00F0E0EC54FE4F80839091D501D8
:1015F0008091D4019817C8F285E8D8CFE091D50141
:1016000081E08E0F8093D5018091BB00F0E0EC5417
:10161000FE4F80838091D70181115CCF81E0809360
:10162000B20184EA8093BC001092D80126CF85ECE9
:101630008093BC001092D80180919F01803230F4D9
:10164000E0919F01F0E0E158FE4F108260919F0110
:1016500070E0E091A901F091AA018FE791E009956E
:1016600010929F010ACF1092D60134CF1F920F9291
:101670000FB60F9211242F933F934F935F936F9365
:101680007F938F939F93AF93BF93EF93FF93F0E07C
:10169000E0E00995FF91EF91BF91AF919F918F91FC
:1016A0007F916F915F914F913F912F910F900FBE5E
:1016B0000F901F901895E2E0F2E01382128288EEFC
:1016C00093E0A0E0B0E084839583A683B7832AE00B
:1016D00031E03183208325EC30E03587248724EC0A
:1016E00030E03787268720EC30E0318B208B21ECEF
:1016F00030E0338B228B22EC30E0358B248B26ECD0
:1017000030E0378B268B118E128E138E148EEFE9FC
:10171000F2E01382128284839583A683B7838CE1DF
:1017200091E091838083EBECF2E01182108280E4FF
:101730008383108611861286138614861586168674
:101740001786EBEAF2E080E090E0A0E8BFE3808358
:101750009183A283B3831482158216821782108626
:101760001186128613861486158616861786108AA9
:10177000118A128A138A148A158A168A178A40E0F7
:1017800050E060E87FEB408F518F628F738F848FC2
:10179000958FA68FB78F0895CF93DF93CDB7DEB720
:1017A000E4970FB6F894DEBF0FBECDBF789484B532
:1017B000826084BD84B5816084BD85B5826085BD4D
:1017C00085B5816085BD80916E00816080936E00DB
:1017D00010928100809181008260809381008091CD
:1017E000810081608093810080918000816080937E
:1017F00080008091B10084608093B1008091B0003E
:1018000081608093B00080917A00846080937A0038
:1018100080917A00826080937A0080917A00816062
:1018200080937A0080917A00806880937A00109289
:10183000C100E0911202F091130282E08083E091F6
:101840000E02F0910F021082E0911002F09111024D
:1018500080E1808310921A02E0911602F091170243
:1018600086E08083E0911402F0911502808180610E
:101870008083E0911402F09115028081886080835A
:10188000E0911402F0911502808180688083E091DC
:101890001402F091150280818F7D808360E08EE0DC
:1018A0000E94E3018091CB029091CC02892BA9F494
:1018B00086E090E00E94C511FC018091CE028083F9
:1018C0008FE992E092838183138280E290E0958396
:1018D0008483F093CC02E093CB02E090CB02F090B3
:1018E000CC021092AE011092AD011092DF01109265
:1018F00001020E946B0288E890E09093AC01809313
:10190000AB0189E890E09093AA018093A90111E0CE
:10191000F7011383C7010E942006882309F45BC0E6
:1019200080E090E1A0E0B0E08093CF029093D002FD
:10193000A093D102B093D2028AE090E0A0E0B0E0A0
:101940008093D3029093D402A093D502B093D60291
:1019500080E090E0A0E0B0E48093D7029093D802BA
:10196000A093D902B093DA028091CB029091CC027D
:101970001BA21CA21DA21EA29D8B8C8B1F8A1E8ADD
:101980001D8F85E090E09B8F8A8F1E8F02E00C8F69
:1019900040E050E160E070E0CE0144960E9489058D
:1019A0008091CB029091CC02188A198A1A8A1B8ADC
:1019B0009A8389831C821B821A8718861F821B8741
:1019C00009874FE959E360E070E0CE0101960E947B
:1019D00089058093CD0280E1809381001092800080
:1019E00081E08093AF0180E293E09093B101809316
:1019F000B001909387008093860081E180938100FD
:101A000061E089E00E94E30180918000806880931A
:101A1000800010928900109288008091AF0180614F
:101A2000809381001092AB021092AC021092AD0232
:101A30001092AE0287E197EBA1E5B9E38093AF0284
:101A40009093B002A093B102B093B2021092B3028D
:101A50001092B4021092B5021092B6021092C30214
:101A60001092C4021092C5021092C60280E090E06B
:101A7000A0E8BFE38093C7029093C802A093C90275
:101A8000B093CA0211E055E0252E312C02E080917E
:101A9000CB029091CC021BA21CA21DA21EA29D8B68
:101AA0008C8B1F8A1E8A1D8F3B8E2A8E1E8F0C8F59
:101AB0004091CF025091D0026091D1027091D20238
:101AC000CE0144960E9489058091CB029091CC0270
:101AD000188A198A1A8A1B8A9A8389831C821B8214
:101AE0001A8784E090E098878F831B870987BE015F
:101AF000695D7F4FCE0101960E9459068093CD0209
:101B00006FA178A5072E000C880B990B0E94671017
:101B10006B017C016091D3027091D4028091D50257
:101B20009091D6020E9465109B01AC01C701B601DD
:101B30000E94C40F2B013C018091CB029091CC02FA
:101B4000188A198A1A8A1B8A9A8389831C821B82A3
:101B50001A87E2E0F0E0F887EF831B870987BE0170
:101B60006C5E7F4FCE0101960E9459068093CD0294
:101B7000EC88FD8833E0F694E7943A95E1F7EE0CB3
:101B8000FF1CEE0CFF1C8091CB029091CC02188AB6
:101B9000198A1A8A1B8A9A8389831C821B821A8754
:101BA00081E090E098878F831B870987BE016C5E78
:101BB0007F4FCE0101960E9459068093CD02CC88BA
:101BC000DD88B701FF0C880B990B0E9467102FE688
:101BD00032E143E85AE30E941C114B015C01B6015B
:101BE000DD0C880B990B0E9467102AE037ED43E269
:101BF0005CE30E941C1120E030E04AE754E40E94BC
:101C0000C40F9B01AC01C501B4010E94520F69A72A
:101C10007AA78BA79CA790E490937C0080917A0090
:101C2000806480937A0080917A0086FDFCCF809159
:101C3000780060917900762F682F072E000C880BB2
:101C4000990B0E94671020E030E040EA50E40E94C7
:101C50001C1120E030EC4FE754E40E94C40F20E058
:101C600030E040EC50E40E941C116DA77EA78FA7C6
:101C700098AB0E941F020E94651020E034E244E706
:101C800059E40E94C40F6B017C012091BF02309186
:101C9000C0024091C1025091C2020E94520F4B01FA
:101CA0005C01C092BF02D092C002E092C102F092E9
:101CB000C202A301920160E070E08AEF93E40E9407
:101CC000520F6B017C012091B7023091B802409114
:101CD000B9025091BA020E94520FA50194010E94CC
:101CE000C40F69AB7AAB8BAB9CABC092B702D092FE
:101CF000B802E092B902F092BA02A7019601C501BA
:101D0000B4010E941C112091BB023091BC02409191
:101D1000BD025091BE020E94530F4B015C01209105
:101D2000AB023091AC024091AD025091AE02C701BE
:101D3000B6010E941C116B017C012091AF02309111
:101D4000B0024091B1025091B202C501B4010E94AB
:101D50001C119B01AC01C701B6010E94530F6B011E
:101D60007C012091B3023091B4024091B5025091B0
:101D7000B60269A97AA98BA99CA90E941C119B0192
:101D8000AC01C701B6010E94530F6B017C01209189
:101D9000C3023091C4024091C5025091C6020E9414
:101DA000BF0F87FD16C02091C7023091C802409135
:101DB000C9025091CA02C701B6010E941711181634
:101DC00044F08092BB029092BC02A092BD02B092FD
:101DD000BE0261E089E00E94E3018091800080689A
:101DE000809380002091B0013091B101AFEFB1E05C
:101DF0000E94B0112AE096958795779567952A9568
:101E0000D1F770938900609388008091AF01806161
:101E10008093810042E060E070E08AEF93E40E94EA
:101E2000610886E391E00E94100842E0C301B2011C
:101E30000E94610886E391E00E94100842E06DA5CF
:101E40007EA58FA598A90E94610886E391E00E9473
:101E5000100842E069A57AA58BA59CA50E9461089F
:101E600086E391E00E94100842E060E070E088E4C0
:101E700092E40E94610888E391E00E941008E0E08B
:101E8000F0E0EF2B09F403CE0E94F400882309F45C
:101E9000FECD0E940000FBCD8091CB029091CC0240
:101EA0000C9461125058BB27AA270E946A0F0C9409
:101EB000DD100E94CF1038F00E94D61020F039F4C7
:101EC0009F3F19F426F40C94CC100EF4E095E7FB38
:101ED0000C94C610E92F0E94EE1058F3BA1762074F
:101EE00073078407950720F079F4A6F50C94101178
:101EF0000EF4E0950B2EBA2FA02D0B01B901900125
:101F00000C01CA01A0011124FF27591B99F0593F68
:101F100050F4503E68F11A16F040A22F232F342FB0
:101F20004427585FF3CF469537952795A795F040FE
:101F30005395C9F77EF41F16BA0B620B730B840B13
:101F4000BAF09150A1F0FF0FBB1F661F771F881FCB
:101F5000C2F70EC0BA0F621F731F841F48F4879523
:101F600077956795B795F7959E3F08F0B0CF939515
:101F7000880F08F09927EE0F9795879508950E948E
:101F8000A21008F481E008950E94D80F0C94DD108F
:101F90000E94D61058F00E94CF1040F029F45F3F05
:101FA00029F00C94C61051110C9411110C94CC1002
:101FB0000E94EE1068F39923B1F3552391F3951B1A
:101FC000550BBB27AA2762177307840738F09F5F5A
:101FD0005F4F220F331F441FAA1FA9F335D00E2EC7
:101FE0003AF0E0E832D091505040E695001CCAF734
:101FF0002BD0FE2F29D0660F771F881FBB1F2617F7
:1020000037074807AB07B0E809F0BB0B802DBF01CD
:10201000FF2793585F4F3AF09E3F510578F00C949C
:10202000C6100C9411115F3FE4F3983ED4F38695EB
:1020300077956795B795F7959F5FC9F7880F911DBD
:102040009695879597F90895E1E0660F771F881FA9
:10205000BB1F621773078407BA0720F0621B730B5C
:10206000840BBA0BEE1F88F7E09508950E94F610D6
:1020700088F09F5798F0B92F9927B751B0F0E1F049
:10208000660F771F881F991F1AF0BA95C9F714C0F9
:10209000B13091F00E941011B1E008950C9410112C
:1020A000672F782F8827B85F39F0B93FCCF3869532
:1020B00077956795B395D9F73EF49095809570958F
:1020C00061957F4F8F4F9F4F0895E89409C097FB0C
:1020D0003EF490958095709561957F4F8F4F9F4FFF
:1020E0009923A9F0F92F96E9BB279395F695879543
:1020F00077956795B795F111F8CFFAF4BB0F11F406
:1021000060FF1BC06F5F7F4F8F4F9F4F16C08823AC
:1021100011F096E911C0772321F09EE8872F762FE2
:1021200005C0662371F096E8862F70E060E02AF023
:102130009A95660F771F881FDAF7880F969587950F
:1021400097F90895990F0008550FAA0BE0E8FEEFE4
:1021500016161706E807F907C0F012161306E4076B
:10216000F50798F0621B730B840B950B39F40A2664
:1021700061F0232B242B252B21F408950A2609F442
:10218000A140A6958FEF811D811D089597F99F6746
:1021900080E870E060E008959FEF80EC08950024EF
:1021A0000A941616170618060906089500240A94BC
:1021B00012161306140605060895092E0394000C42
:1021C00011F4882352F0BB0F40F4BF2B11F460FFD1
:1021D00004C06F5F7F4F8F4F9F4F089557FD9058FA
:1021E000440F551F59F05F3F71F04795880F97FBDB
:1021F000991F61F09F3F79F0879508951216130695
:102200001406551FF2CF4695F1DF08C016161706C3
:102210001806991FF1CF86957105610508940895F8
:10222000E894BB2766277727CB0197F908950E948A
:10223000A21008F48FEF08950E942F110C94DD1066
:102240000E94CF1038F00E94D61020F0952311F094
:102250000C94C6100C94CC1011240C9411110E94F3
:10226000EE1070F3959FC1F3950F50E0551F629FDC
:10227000F001729FBB27F00DB11D639FAA27F00DDF
:10228000B11DAA1F649F6627B00DA11D661F829F06
:102290002227B00DA11D621F739FB00DA11D621FEB
:1022A000839FA00D611D221F749F3327A00D611D08
:1022B000231F849F600D211D822F762F6A2F1124EA
:1022C0009F5750409AF0F1F088234AF0EE0FFF1F1D
:1022D000BB1F661F771F881F91505040A9F79E3F74
:1022E000510580F00C94C6100C9411115F3FE4F37B
:1022F000983ED4F3869577956795B795F795E795CA
:102300009F5FC1F7FE2B880F911D9695879597F9D2
:1023100008950E94A210880B990B0895A1E21A2E2D
:10232000AA1BBB1BFD010DC0AA1FBB1FEE1FFF1F79
:10233000A217B307E407F50720F0A21BB30BE40BC9
:10234000F50B661F771F881F991F1A9469F7609510
:102350007095809590959B01AC01BD01CF010895CA
:10236000A29FB001B39FC001A39F700D811D1124D6
:10237000911DB29F700D811D1124911D0895EE0FC6
:10238000FF1F0590F491E02D09940F931F93CF93B5
:10239000DF938230910510F482E090E0E091DD025D
:1023A000F091DE0230E020E0B0E0A0E0309799F458
:1023B0002115310509F44AC0281B390B2430310599
:1023C000D8F58A819B816115710589F1FB019383A1
:1023D0008283FE0111C0408151810281138148171F
:1023E0005907E0F04817590799F4109761F01296D1
:1023F0000C93129713961C933296CF01DF91CF91D5
:102400001F910F9108950093DD021093DE02F4CF27
:102410002115310551F04217530738F0A901DB01AE
:102420009A01BD01DF01F801C1CFEF01F9CF90930F
:10243000DE028093DD02CDCFFE01E20FF31F819318
:1024400091932250310939832883D7CF2091DB0221
:102450003091DC02232B41F42091020130910301E1
:102460003093DC022093DB022091000130910101C6
:102470002115310541F42DB73EB74091040150912B
:102480000501241B350BE091DB02F091DC02E21721
:10249000F307A0F42E1B3F0B2817390778F0AC0187
:1024A0004E5F5F4F2417350748F04E0F5F1F509364
:1024B000DC024093DB02819391939FCFF0E0E0E058
:1024C0009CCFCF93DF930097E9F0FC013297138202
:1024D0001282A091DD02B091DE02ED0130E020E039
:1024E0001097A1F420813181820F931F2091DB028C
:1024F0003091DC022817390709F061C0F093DC0243
:10250000E093DB02DF91CF910895EA01CE17DF0758
:10251000E8F54A815B819E0141155105B1F7E9015A
:10252000FB83EA8349915991C40FD51FEC17FD072E
:1025300061F4808191810296840F951FE90199834E
:102540008883828193819B838A83F0E0E0E0129606
:102550008D919C9113970097B9F52D913C9111970E
:10256000CD010296820F931F2091DB023091DC0295
:102570002817390739F6309751F51092DE0210927C
:10258000DD02B093DC02A093DB02BCCFD383C28315
:1025900040815181840F951FC817D90761F44E5FA0
:1025A0005F4F88819981480F591F518340838A81E9
:1025B0009B81938382832115310509F0B0CFF0937D
:1025C000DE02E093DD029ECFFD01DC01C0CF13826D
:1025D0001282D7CF10E0CDE5D0E004C0FE010E940A
:0E25E000BF112196CE35D107C9F7F894FFCF71
:1025EE000000DF028000000000002A018A00B70010
:1025FE007701E800C600DA0000000000F103C40312
:10260E0020049A03BD03AA039B036E616E00696EDC
:0C261E0066006F76660020000D0A0000C8
:00000001FF
