:100000000C941B070C94C6310C949B310C947031EA
:100010000C9445310C941A310C94EF300C94C4308C
:100020000C9499300C944C070C944C070C944C078E
:100030000C944C070C944C070C944C070C944C07F4
:100040000C944C070C944C070C944C070C944C07E4
:100050000C9415330C944C070C944C070C944F30B3
:100060000C944C070C9419300C94EF2F0C944C0703
:100070000C944C070C944C070C944C070C944C07B4
:100080000C944C070C944C070C944C070C944C07A4
:100090000C944C070C944C070C944C070C94F131C5
:1000A0000C944C070C944C070C944C070C944C0784
:1000B0000C944C070C944C070C944C070C944C0774
:1000C0000C944C070C944C070C944C070C944C0764
:1000D0000C944C070C944C070C944C070C944C0754
:1000E0000C944C070C94993B0C94BD3B0C947C3BBA
:1000F0000C944F3B0C94D8240C942A090C944E2257
:100100000C9474160C94B8220C94600B0C94910E01
:100110000C9438090C9457100C9422090C94300953
:100120000C9418090C94AB140C9413180C941E1115
:100130000C9487070C94141A0C949E110C94170BB2
:100140000C941C090C940E110C949D160C94A70B86
:100150000C94F1080C9485070C94C4070C94630F5D
:100160000C94CA160C9407090C946A330C94E24060
:100170000C941E080C942E3B0C943E090C946B08B6
:100180000C948A140C94E6070C940B090C94C72465
:100190000C94703B0C9486070C943A100C948807CE
:1001A0000C9496160C9442090C9434090C94A53BBB
:1001B0000C94E9270C94570C0C94643B0C94FF09A5
:1001C0000C94B13B0C948B140C94BB140C944422EF
:1001D0000C9423230C94B5070C9403090C943A3B1C
:1001E0000C941C3B0C9426090C94C93B0C94C20F34
:1001F0000C94FA390C94223B0C9436110C942A116D
:100200000C9483160C9412090C94583B0C94EC0833
:100210000C94463B0C94D8070C940F090C948D3B1E
:1002200000407A10F35A00A0724E18090010A5D4AD
:10023000E80000E87648170000E40B54020000CA0A
:100240009A3B000000E1F505000080969800000050
:1002500040420F000000A0860100000010270000AF
:100260000000E803000000006400000000000A0035
:10027000000000000100000000002C76D888DC6738
:100280004F0823DFC1DFAE59E1B1B796E5E3E45390
:10029000C63AE651997696E8E6C28426EB898C9BAD
:1002A00062ED407C6FFCEFBC9C9F40F2BAA56FA54D
:1002B000F490055A2AF75C936B6CF9676DC11BFCCF
:1002C000E0E40D47FEF520E6B500D0ED902E0300EA
:1002D000943577050080841E080000204E0A000037
:1002E00000C80C333333330F986E12831141EF8DF6
:1002F0002114893BE65516CFFEE6DB18D1844B3836
:100300001BF77C1D901DA4BBE424203284725E2266
:100310008100C9F124ECA1E53D277C3C3E5E2B3DEC
:100320003F2F5B5D3B2C2A225C0000002000230055
:10033000260029002C002F003200000100000301DC
:1003400006010901005EBCE2613FDD83C29C7E20A4
:10035000A3FD1F41009D23BE46DB65F88C11AF3223
:10036000CA57E97400000000003E5B4F5B3E3E6BE5
:100370004F6B3E1C3E7C3E1C183C7E3C181C577D3F
:10038000571C1C5E7F5E1C00183C1800FFE7C3E78B
:10039000FF0018241800FFE7DBE7FF30483A060E9D
:1003A0002629792926407F050507407F05253F5AE4
:1003B0003CE73C5A7F3E1C1C08081C1C3E7F142254
:1003C0007F22145F5F005F5F06097F017F006689FF
:1003D000956A606060606094A2FFA29408047E0445
:1003E0000810207E201008082A1C08081C2A08086B
:1003F0001E101010100C1E0C1E0C30383E3830062B
:100400000E3E0E06000000000000005F0000000726
:10041000000700147F147F14242A7F2A1223130854
:10042000646236495620500008070300001C224130
:10043000000041221C002A1C7F1C2A08083E0808D4
:100440000080703000080808080800006060002084
:10045000100804023E5149453E00427F4000724967
:100460004949462141494D331814127F102745450B
:1004700045393C4A49493141211109073649494921
:1004800036464949291E000014000000403400008F
:1004900000081422411414141414004122140802F8
:1004A000015909063E415D594E7C1211127C7F496B
:1004B0004949363E414141227F4141413E7F4949C0
:1004C00049417F090909013E414151737F080808EC
:1004D0007F00417F41002040413F017F08142241BD
:1004E0007F404040407F021C027F7F0408107F3E17
:1004F0004141413E7F090909063E4151215E7F0984
:10050000192946264949493203017F01033F4040EA
:10051000403F1F2040201F3F4038403F63140814D5
:100520006303047804036159494D43007F4141410D
:100530000204081020004141417F040201020440EE
:1005400040404040000307080020545478407F2872
:100550004444383844444428384444287F38545468
:10056000541800087E090218A4A49C787F0804048B
:100570007800447D40002040403D007F102844002A
:1005800000417F40007C047804787C0804047838BB
:1005900044444438FC1824241818242418FC7C08EB
:1005A000040408485454542404043F44243C404068
:1005B000207C1C2040201C3C4030403C442810281B
:1005C000444C9090907C4464544C44000836410064
:1005D0000000770000004136080002010204023CDE
:1005E0002623263C1EA1A161123A4040207A3854AD
:1005F0005455592155557941225454784221555426
:10060000784020545579400C1E5272123955555578
:1006100059395454545939555454580000457C4163
:100620000002457D420001457C407D1211127DF0A3
:10063000282528F07C545545002054547C547C0ACD
:10064000097F4932494949323A4444443A324A4896
:1006500048303A4141217A3A42402078009DA0A09A
:100660007D3D4242423D3D4040403D3C24FF2424EC
:10067000487E4943662B2FFC2F2BFF0929F620C00B
:10068000887E090320545479410000447D4130485C
:10069000484A32384040227A007A0A0A727D0D199F
:1006A000317D2629292F28262929292630484D4001
:1006B00020380808080808080808382F10C8ACBAFD
:1006C0002F102834FA00007B000008142A1422227C
:1006D000142A14085500550055AA55AA55AAFF55C5
:1006E000FF55FF000000FF00101010FF001414144D
:1006F000FF001010FF00FF1010F010F0141414FC95
:10070000001414F700FF0000FF00FF1414F404FCB1
:10071000141417101F10101F101F1414141F001092
:100720001010F0000000001F101010101F1010100B
:1007300010F010000000FF1010101010101010101A
:10074000FF10000000FF140000FF00FF00001F105A
:10075000170000FC04F414141710171414F404F414
:100760000000FF00F714141414141414F700F71405
:100770001414171410101F101F141414F414101054
:10078000F010F000001F101F0000001F14000000F8
:10079000FC140000F010F01010FF10FF141414FFF0
:1007A000141010101F00000000F010FFFFFFFFFFEB
:1007B000F0F0F0F0F0FFFFFF0000000000FFFF0F7F
:1007C0000F0F0F0F3844443844FC4A4A4A347E0223
:1007D000020606027E027E026355494163384444A4
:1007E0003C04407E201E2006027E020299A5E7A559
:1007F000991C2A492A1C4C7201724C304A4D4D30CA
:100800003048784830BC625A463D3E494949007EEE
:100810000101017E2A2A2A2A2A44445F4444405185
:100820004A444040444A51400000FF0103E080FF39
:10083000000008086B6B083612362436060F090FC5
:1008400006000018180000001010003040FF0101E1
:10085000001F01011E00191D1712003C3C3C3C000A
:1008600000000000000103070F1F3F7F0080C0E071
:10087000F0F8FCFE00002100240027002A002D00D3
:100880003000330001010000040107010A01DB40D0
:10089000A4A62EAF2000A1C8D300408DAED580A85D
:1008A0000102102020080810204010204080020182
:1008B0000201080402010102040810204080804067
:1008C0002010080402018004020180402010080466
:1008D0000201080402010102040810204080010204
:1008E00004081020408000002200250028002B0072
:1008F0002E003100340002010000050108010B0147
:1009000005050505070508080808020202020A0A8B
:1009100008080404040401010101010101010303A9
:10092000030303030303040707070C0C0C0C0C0C54
:100930000C0C0202020206060606060606060B0B51
:100940000B0B0B0B0B0B0000600000000000000005
:1009500000000000000000E00000000000000000B7
:10096000000000000001E0000000000000000000A6
:100970000000000001F00000000000000000000086
:1009800000000003F0000000000000000000000074
:10099000000007F000000000000000000000000060
:1009A0000007F80000000000000000000000000048
:1009B0000FF800000003C0007E000001E0007F0F80
:1009C000F800000003C000FE000001E000FFEFF8A7
:1009D00000000003C000FE000001E000FFFFF8007F
:1009E000000003C000F00000000F007FFE7FC00089
:1009F0000003C000F00000000F003FFE7FF83FF151
:100A0000FBCFFCFEF3BC3DEFE01FFE7FFF7FFBFF53
:100A1000DFFEFEFFBC3DEFE01FC6FFFF7FFBFFDFF9
:100A2000FEFEFFBC3DEFE00FE3C7FE787BC3DE1E9A
:100A3000F0FFBC3DEF0007FF87FC787BC3DE1EF0B4
:100A4000F83C3DEF0001FFFFF0007BC3C01EF0F05B
:100A50003C3DEF0001F37FE03FFBC3CFFEF0F03CF5
:100A60003DEF0003E33F807FFBC3DFFEF0F03C3D42
:100A7000EF0007E73C00787BC3DE1EF0F03C3DEF63
:100A80000007FFBE00787BC3DE1EF0F03C3DEF00A8
:100A900007FFFE00787BC3DE1EF0F03C3DEF000F49
:100AA000FFFE007FFBFFDFFEF0F03FFDEFE00FFFFA
:100AB000FF007FFBFFDFFEF0F03FFDEFE00FF9FFEF
:100AC000003E79F9CF9EF0F01F3DE7E01FF1FF00F7
:100AD00000000000000000000000001F80FF007FF9
:100AE000FFFFFFFFFFFFFFFFFFE01C007F007FFF16
:100AF000FFFFFEB46D888D18E000001F007FFFFF30
:100B0000FFFE95AD7DB577E000000F007FFFFFFF92
:100B1000FEA5AD9D8D19E0000006007FFFFFFFFEE2
:100B2000B5ADEDB57EE000000000000180000000E2
:100B30000000000000000380000000000000000032
:100B40000007C000000000000000000007C0000017
:100B5000000000000000000FC000000000000000C6
:100B600000001FE00000000000000000001FE00087
:100B700000000000000000003FE000000000000056
:100B80000000003FF00000000000000000007FF0C7
:100B9000000000000000001FF87FF00000000000CF
:100BA00000003FFE7FF0000000000000003FFF7FDC
:100BB000F0000000000000001FFFFBE0000000004C
:100BC0000000000FFFF9FFC00000000000000FFF51
:100BD000F9FFF800000000000007FFF1FFFF000030
:100BE0000000000003FC73FFFF8000000000000114
:100BF000FE3FFFFF80000000000000FF1E0FFF000F
:100C00000000000000007FFE1FFC0000000000004C
:100C1000003FFFFFF8000000000000000FDFFFE0D2
:100C2000000000000000001F19FFC00000000000CD
:100C300000003F3CFF00000000000000007E7CF848
:100C400000000000000000007FFE7C0000000000AB
:100C5000000000FFFFFC0000000000000000FFFF9C
:100C6000FE0000000000000000FFFFFE000000008A
:100C700000000001FFEFFE0000000000000001FF87
:100C8000CFFE0000000000000003FF07FE00000090
:100C90000000000003FC07FE00000000000000034D
:100CA000F003FE00000000000000018000FE0000D4
:100CB00000000000000000007E00000000000000B6
:100CC0000000003E000000000000000000000C00DA
:100CD0000000000000078000FC000003C0000000CE
:100CE000078001FC000003C0000000078001FC0039
:100CF0000003C0000000078001E00000001E0000AB
:100D000000078001E00000001E007FE3F79FF9FD6F
:100D1000E7787BDFC0FFF7FFBFFDFDFF787BDFC01B
:100D2000FFF7FFBFFDFDFF787BDFC0F0F787BC3D1D
:100D3000E1FF787BDE00F0F787BC3DE1F0787BDEF9
:100D40000000F787803DE1E0787BDE007FF7879F3A
:100D5000FDE1E0787BDE00FFF787BFFDE1E0787B17
:100D6000DE00F0F787BC3DE1E0787BDE00F0F7873E
:100D7000BC3DE1E0787BDE00F0F787BC3DE1E07848
:100D80007BDE00FFF7FFBFFDE1E07FFBDFC0FFF789
:100D9000FFBFFDE1E07FFBDFC07CF3F39F3DE1E0BF
:100DA0003E7BCFC00000000000000000000000FFFC
:100DB000FFFFFFFFFFFFFFFFFFC0FFFFFFFFFD681B
:100DC000DB111A31C0FFFFFFFFFD2B5AFB6AEFC09A
:100DD000FFFFFFFFFD4B5B3B1A33C0FFFFFFFFFD33
:100DE0006B5BDB6AFDC000000A0B02090C0D0E08EC
:100DF00007030401000000000000000000000000E4
:100E000000000000000000000000000000000000E2
:100E1000000012111000000000000000000000009F
:100E20000000000000000000000000002200FF2180
:100E300000006A33E24011241FBECFEFD1E2DEBFD3
:100E4000CDBF00E00CBF28E0AAE9B3E001C01D92CD
:100E5000A23CB207E1F713E0A0E0B2E0E8E6F1E976
:100E600000E00BBF02C007900D92AA39B107D9F775
:100E700017E0CAE1D7E000E006C021970109802F02
:100E8000FE010E943D46C931D10780E00807A9F75D
:100E90000E940A350C94A2480C940000CF93DF9373
:100EA000FC018281938190937608809375088481F8
:100EB0009581A681B7818093770890937808A09355
:100EC0007908B0937A0880859185A285B38580934F
:100ED0007B0890937C08A0937D08B0937E08DF0187
:100EE0001C96CF014996CFE7D8E02D912993A817FA
:100EF000B907D9F7818D928D90938D0880938C08D6
:100F000083E798E0DF91CF910895089508950895BB
:100F1000AF92BF92CF92DF92EF92FF920F931F9307
:100F2000CF93DF936C017B018B01040F151FEB0145
:100F30005E01AE18BF08C017D10759F06991D601FC
:100F4000ED91FC910190F081E02DC6011995892B5E
:100F500079F7C501DF91CF911F910F91FF90EF902D
:100F6000DF90CF90BF90AF900895FC01538D448DDA
:100F7000252F30E0842F90E0821B930B541710F044
:100F8000CF96089501970895FC01918D828D981751
:100F900061F0A28DAE0FBF2FB11D5D968C91928D29
:100FA0009F5F9F73928F90E008958FEF9FEF08955A
:100FB000FC01918D828D981731F0828DE80FF11D23
:100FC000858D90E008958FEF9FEF0895FC01918D3E
:100FD000228D892F90E0805C9F4F821B91098F7337
:100FE000992708958DE796E00E94E60721E0892B76
:100FF00009F420E0822F0895FC01A48DA80FB92FD9
:10100000B11DA35ABF4F2C91848D90E001968F7330
:101010009927848FA689B7892C93A089B1898C914F
:10102000837080648C93938D848D981306C002889E
:10103000F389E02D80818F7D80830895EF92FF9268
:101040000F931F93CF93DF93EC0181E0888F9B8DEB
:101050008C8D98131AC0E889F989808185FF15C0A5
:101060009FB7F894EE89FF896083E889F9898081C8
:101070008370806480839FBF81E090E0DF91CF9197
:101080001F910F91FF90EF900895F62E0B8D10E0B9
:101090000F5F1F4F0F731127E02E8C8D8E110CC028
:1010A0000FB607FCFACFE889F989808185FFF5CF73
:1010B000CE010E94FC07F1CFEB8DEC0FFD2FF11D4F
:1010C000E35AFF4FF0829FB7F8940B8FEA89FB89B0
:1010D00080818062CFCFCF93DF93EC01888D88230E
:1010E000B9F0AA89BB89E889F9898C9185FD03C08B
:1010F000808186FD0DC00FB607FCF7CF8C9185FF70
:10110000F2CF808185FFEDCFCE010E94FC07E9CFB1
:10111000DF91CF91089580E090E0892B29F00E9423
:10112000F20781110E94000080E090E0892B49F0D5
:1011300080E090E0892B29F00E94000081110E943C
:10114000000080E090E0892B49F080E090E0892B5E
:1011500029F00E94000081110E94000080E090E0D0
:10116000892B49F080E090E0892B29F00E94000053
:1011700081110C9400000895282F30E0F901EA5104
:10118000F24F9491F901E056F74F44912050374FB8
:10119000F9012491222309F435C0992311F19150CA
:1011A0009231F8F4E92FF0E08827E652F74F8F4F9D
:1011B0000C943D460B090F09EC0803090709F108D7
:1011C000120918091C09220926092A0930093409BB
:1011D000F10838093E094209809180008F77809399
:1011E0008000E22FF0E0EE0FFF1FEA51F74FA591CC
:1011F000B4918FB7F894EC91611148C040954E239B
:101200004C938FBF0895809180008F7DE8CF8091AF
:101210008000877FE4CF84B58F7784BDE2CF84B52B
:101220008F7DFBCF8091B0008F778093B000D9CFB6
:101230008091B0008F7DF9CF809190008F7780935F
:101240009000CFCF809190008F7DF9CF809190005A
:10125000877FF5CF8091A0008F778093A000C1CFCA
:101260008091A0008F7DF9CF8091A000877FF5CF7E
:10127000809120018F7780932001B3CF809120014E
:101280008F7DF9CF80912001877FF5CF4E2BB8CF8E
:10129000CF93DF9390E0FC01E056F74F249180500C
:1012A000974FFC0184918823D1F090E0880F991F1B
:1012B000FC01EC58F74FA591B491FC01EA51F74FAE
:1012C000C591D49161110EC09FB7F8948C91E22F13
:1012D000E0958E238C932881E223E8839FBFDF91E2
:1012E000CF9108958FB7F894EC91E22BEC938FBFD8
:1012F000F6CF90917B00977F90937B00865380641C
:1013000080937C0080917A00806480937A00809141
:101310007A0086FDFCCF8091780090917900089545
:101320008230910538F0880F991F880F991F059713
:101330000197F1F708953FB7F8948091EA039091EF
:10134000EB03A091EC03B091ED0326B5A89B05C07B
:101350002F3F19F00196A11DB11D3FBFBA2FA92F34
:10136000982F8827BC01CD01620F711D811D911D31
:1013700042E0660F771F881F991F4A95D1F708959D
:101380008F929F92AF92BF92CF92DF92EF92FF9295
:101390006B017C010E949B094B015C01C114D104CB
:1013A000E104F104B9F00E949B09681979098A09DE
:1013B0009B09683E73408105910580F321E0C21AC4
:1013C000D108E108F10888EE880E83E0981EA11C80
:1013D000B11CE4CFFF90EF90DF90CF90BF90AF9023
:1013E0009F908F9008952FB7F8946091E6037091C5
:1013F000E7038091E8039091E9032FBF08950895D2
:10140000EF92FF920F931F93CF93DF93EC01EC8049
:10141000FD806E157F050CF070C057FF04C0240FCF
:10142000351F50E040E08E819F81FA01E20FF31FEB
:101430008E179F071CF49C01241B350B12161306F4
:101440000CF05BC0922F842F8695869586958E9D95
:10145000D0018F9DB00D11246A0F7B1FAF8DB8A1F5
:10146000A60FB71F477049F188E0841B482F682FEB
:1014700070E0FB01E459F74FE491281708F063C0CE
:10148000621B71092FEF30E002C0359527956A95F0
:10149000E2F7E2230130110539F0B0F10230110515
:1014A00061F58C91E82702C08C91E82BEC9394179E
:1014B00020F12C813D81A20FB31FE92FE41BE830FE
:1014C00078F00230110521F58E2F9C9190959C9318
:1014D0002C813D81A20FB31F88508830B0F7E77090
:1014E000EE2359F0F0E0EC59F74FE491013011058B
:1014F000F9F010F10230110519F1DF91CF911F9130
:101500000F91FF90EF900895E0958C91E823CECF56
:1015100081E00115110509F480E081959E2F8C93DF
:101520002C813D81A20FB31F98509830C0F7D7CFC0
:101530008C91E82BEC93E1CFE0958C91E823FACFE6
:101540008C91E827F7CF0130110509F4ADCFE0F217
:101550000230110509F4A5CFAE0DBF1DAECF0F931C
:101560001F93CF93DF9377FF04C0260F371F70E0E0
:1015700060E0DC011496CD91DC91FB01E20FF31FDA
:10158000CE17DF071CF49E01261B370B121613061D
:101590004CF5FA0157FD3796A3E0F595E795AA9526
:1015A000E1F7EC9FD001ED9FB00DFC9FB00D112431
:1015B0006A0F7B1FDC015F96ED91FC91E60FF71F30
:1015C0004770552781E090E001C0880F4A95EAF7FF
:1015D000482F0130110559F0A8F02E0F3F1F02309F
:1015E0001105E1F0DF91CF911F910F9108952E0F1A
:1015F0003F1FE217F307B1F38191DF011197842BAD
:101600008C93F7CF80952E0F3F1FE217F30751F30E
:101610009191DF01119798239C93F7CFE217F3077D
:1016200009F38191DF01119784278C93F7CF0F93F2
:101630001F93FA01DC0156964C9156974230E9F01F
:101640004330A1F1413061F514964D915C91DA017E
:10165000AE1BBF0BFD01E21BF30B77FD0BC0DC01E2
:1016600016964D915C916417750724F4AB01BF0188
:101670000E94AF0A1F910F91089514964D915C91AD
:10168000DA01A61BB70BBD0161507109DC0116968A
:101690004D915C91DA01AE1BBF0BFD01E21BF30B18
:1016A00077FDE8CFAF010E94000AE4CF16964D9176
:1016B0005C91DA01A61BB70BBD0161507109CDCF5A
:1016C0000F931F93FA01DC0156964C9156974230C6
:1016D000A9F0433091F1413019F514964D915C9188
:1016E000DA01AE1BBF0BFD013197F7FD04C0AB0162
:1016F000BF010E94000A1F910F91089514964D9109
:101700005C91DA01A61BB70BBD01DC0116964D9169
:101710005C91DA01AE1BBF0BFD013197621B730BAD
:10172000F7FDE9CFDC0116964D915C91E417F507C2
:1017300014F7AF010E94AF0ADECF16964D915C916F
:10174000DA01A61BB70BBD01621B730BCECFFC01E8
:1017500077FD64C080859185681779070CF05EC0BD
:1017600057FD5CC082859385481759070CF056C019
:1017700086898230B1F0833029F1813041F484814F
:101780009581841B950BAB01BC016150710921301F
:10179000310509F108F443C02230310509F463C072
:1017A000089584819581DC01A61BB70BBD016150B2
:1017B000710986819781DC01A41BB50BAD014150F5
:1017C0005109E5CF86819781861B970BBA01AC0141
:1017D00041505109DCCFCA0157FD0796A3E095950A
:1017E0008795AA95E1F7A481B5818A9F90018B9F87
:1017F000300D9A9F300D1124620F731F078CF0A1DA
:10180000E02DE60FF71F4770552721E030E001C0BB
:10181000220F4A95EAF78081822B80830895CA01BE
:1018200057FD079633E0959587953A95E1F7A481A2
:10183000B5818A9F90018B9F300D9A9F300D1124A6
:10184000620F731F078CF0A1E02DE60FF71F4770A2
:10185000552781E090E001C0880F4A95EAF780950E
:1018600090818923DACFCA0157FD079623E0959529
:1018700087952A95E1F7A481B5818A9F90018B9F76
:10188000300D9A9F300D1124620F731F078CF0A149
:10189000E02DE60FF71F4770552721E030E001C02B
:1018A000220F4A95EAF780818227B7CF0895FC017D
:1018B0006370668B8481958126813781613039F030
:1018C000633029F091878087338722870895318795
:1018D00020879387828708952F923F924F925F923D
:1018E0006F927F928F929F92AF92BF92CF92DF9230
:1018F000EF92FF920F931F93CF93DF93CDB7DEB795
:101900006A970FB6F894DEBF0FBECDBF9A8F898F4E
:101910007A8369834A01D22E18870F833701BC2C42
:10192000DC0159962D913C915A972115310509F00A
:1019300015C118968D919C911997681779070CF02D
:10194000D7C11A968D919C91481759070CF0D0C1B8
:101950004C2C512CB6E0CB9E600D711D11247C8760
:101960006B87161617060CF0C3C1EA2DF0E0FA8754
:10197000E98793E0EE0FFF1F9A95E1F7F88BEF8769
:10198000CF01840F951F181619060CF0B1C1A98D4F
:10199000BA8D58968C91811104C0BFEABD1508F428
:1019A000D394A98DBA8DED91FC9111970284F385A2
:1019B000E02DCD011995B5E0DB9EC0011124E98130
:1019C000FA81FC83EB83312C212C9C012C593C4F58
:1019D000388F2F8B4A2D50E05E8B4D8BEF89F88D21
:1019E000E20DF31D44919E828D82D12CC12C698120
:1019F0007A81620D731D7A8B698B842F90E09C8BAA
:101A00008B8BE98DFA8DA081B18140FF82C0F1E01E
:101A1000BF126FC0AF126DC01C96ED91FC912F816B
:101A20003885A4014C0D5D1D69897A89898D9A8D4F
:101A30001995EB89FC89F595E7954E2F5FEFC51A4F
:101A4000D50A6D817E818D899E89680F791F7E837D
:101A50006D8398E0C916D10481F6AFEF2A1A3A0ACD
:101A6000EB81FC81E40DF51DFC83EB83F5E02F1683
:101A7000310409F0B3CF2F81388526153705B9F029
:101A8000A98DBA8DED91FC91B1E0BB1257C0AB129C
:101A900055C069817A816B5F7F4F0088F189E02DA5
:101AA000830128E030E0A401898D9A8D1995A98DD4
:101AB000BA8DED91FC9111970688F789E02DCD0143
:101AC0006A960FB6F894DEBF0FBECDBFDF91CF91FF
:101AD0001F910F91FF90EF90DF90CF90BF90AF904C
:101AE0009F908F907F906F905F904F903F902F903E
:101AF00019941E96ED91FC91EF80F88409851A8562
:101B000092014D815E816B817C81898D9A8D1995C1
:101B100090CF2F8138852615370509F48ACF31E01B
:101B2000B31207C0A31205C01C96ED91FC9193015E
:101B300078CF1E96ED91FC917301E0CF6B857C858B
:101B4000641975090684F785E02D73010F851889DE
:101B50009201A401898D9A8D1995A9CFF901349626
:101B60009491329745915491D91AB7E0DB9E400D7C
:101B7000511D1124F901259134913C8B2B8BFA01D5
:101B800025903490FA013296749031963491398BC5
:101B9000329664903196449041E04C1518F04A1505
:101BA00008F07FC0662D062C000C770B7C836B83BE
:101BB000842D042C000C990B9E838D83A98DBA8DE6
:101BC000ED91FC9111970284F385E02DCD011995DB
:101BD000512CD12CC12CEA2DF0E0FA87E9872B2D6E
:101BE00030E03C872B87A401440D511D47FC5A95DA
:101BF000588F4F8B69817A81660D711D67FC7A95CC
:101C00007E876D877989C71608F051CF2C2D30E07B
:101C10004D815E81420F531FA985BA854A9FC0013D
:101C20004B9F900D5A9F900D1124FC01E80DF91D5A
:101C3000F88BEF87852D612C4F89588D420F531FEC
:101C40005E8B4D8B671408F050C044244394480EBB
:101C5000877041F4C1010196EB89FC89E20DF31D07
:101C6000D4901C01D7FE19C0A98DBA8DED91FC91BD
:101C7000662D70E0B1E0BB1219C0AB1217C02D8504
:101C80003E85620F731F0484F585E02D2F81388512
:101C90004D895E89898D9A8D1995DD0C6394842D0B
:101CA000D1CF1E821D821C821B8288CF4B815C811A
:101CB000640F751FAB85BC856A9FC0016B9F900D3B
:101CC0007A9F900D112469817A81680F791F0684AB
:101CD000F785E02DEF80F88409851A859D014F85F1
:101CE0005889898D9A8D1995D8CF570CC3948ACF6E
:101CF0006A960FB6F894DEBF0FBECDBFDF91CF91CD
:101D00001F910F91FF90EF90DF90CF90BF90AF9019
:101D10009F908F907F906F905F904F903F902F900B
:101D200008958F929F92AF92CF92EF92FF920F936E
:101D30001F93CF93DF93EC01262F898D9A8D009707
:101D400009F051C06A30D1F41D861C868D8948E0A7
:101D5000849F900111248E859F85820F931F9F87FA
:101D60008E8781E090E0DF91CF911F910F91FF90DE
:101D7000EF90CF90AF909F908F9008956D3089F342
:101D8000CC88AD888F898823C1F08C859D8536E00D
:101D9000C39E800D911D1124488559854817590708
:101DA00064F44E855F851D861C8638E0A39EC001C5
:101DB0001124840F951F9F878E87EA88FB880889E6
:101DC00019894E855F856C857D85CE010E946C0CDE
:101DD0002C898C859D8546E0249F800D911D1124C2
:101DE0009D878C87BECF6A3069F41D861C86FC01F6
:101DF0003896E4912D898E859F85E29F800D911DF7
:101E00001124ADCF6D3009F4ACCFFC013496349180
:101E1000631708F4A6CF3296E491E61708F4A1CF31
:101E2000FC01329685909490462F431B342F47E057
:101E3000349F800C911C1124F40132963491319618
:101E4000E4913323A9F1EE2399F1CC88F40135967E
:101E5000E491AD884F89442301F10E2E000CFF0B55
:101E6000E30FF11DCE9EA001CF9E500D11246C8575
:101E70007D85460F571F68857985641775076CF453
:101E80004E855F851D861C86FC013896E491AE9ECA
:101E9000400D511D11245F874E87EA88FB88088911
:101EA00019894E855F856C857D85CE010E946C0CFD
:101EB000F4013496E4912C898C859D85E29F800DF8
:101EC000911D11248DCF6F927F928F929F92AF922E
:101ED000BF92CF92DF92EF92FF920F931F93CF9317
:101EE000DF93EC016B015A0139014801E881F98166
:101EF0000284F385E02D1995E881F9810288F38940
:101F0000E02D87019301A501B601CE011995A50128
:101F1000480D591D41505109E881F9810288F38922
:101F2000E02D9301B601CE011995E881F981008871
:101F3000F189E02D9401A501B601CE011995C60CD9
:101F4000D71CB60161507109E881F9810088F189D7
:101F5000E02D9401A501CE011995E881F98106884B
:101F6000F789E02DCE01DF91CF911F910F91FF9066
:101F7000EF90DF90CF90BF90AF909F908F907F9029
:101F80006F9019946F927F928F929F92AF92BF92AF
:101F9000CF92DF92EF92FF920F931F93CF93DF9335
:101FA0005C01EB016A01490138018701DC01ED9117
:101FB000FC916217730719F5641675062CF0962DBF
:101FC000872D3A01C92ED82E9601261937092F5F81
:101FD0003F4F048CF58DE02DA301BE01C50119957D
:101FE000DF91CF911F910F91FF90EF90DF90CF90F5
:101FF000BF90AF909F908F907F906F9008954615FF
:10200000570591F42617370724F0892D4B01C22F6D
:10201000D82F9E01281939092F5F3F4F068CF78D65
:10202000E02DA601B401DACF0284F385E02D1995E5
:10203000D501ED91FC910488F589E02D830194018F
:10204000A601BE01C5011995D501ED91FC91068847
:10205000F789E02DC501DF91CF911F910F91FF907E
:10206000EF90DF90CF90BF90AF909F908F907F9038
:102070006F901994EF92FF920F931F93DC011A96C1
:102080000D911C911B9718962D913C911997ED91EC
:10209000FC9100A0F1A1E02D7B0150E040E070E058
:1020A00060E019951F910F91FF90EF9008954F9266
:1020B0005F926F927F928F929F92AF92BF92CF92D8
:1020C000DF92EF92FF920F931F93CF93DF936C01F8
:1020D0002B015A0139014801DC01ED91FC91028488
:1020E000F385E02D1995E201640C751CD601ED9184
:1020F000FC91C615D7055CF40088F189E02D8701B5
:102100009401A501BE01C60119952196EFCF06885D
:10211000F789E02DC601DF91CF911F910F91FF90BC
:10212000EF90DF90CF90BF90AF909F908F907F9077
:102130006F905F904F9019948F929F92AF92BF9241
:10214000CF92DF92EF92FF920F931F93CF93DF9383
:10215000EC015B014A016901E881F9810284F385A0
:10216000E02D199595012C0D3D1D21503109E88177
:10217000F9810488F589E02D78018401A401B50175
:10218000CE011995E881F9810688F789E02DCE0105
:10219000DF91CF911F910F91FF90EF90DF90CF9043
:1021A000BF90AF909F908F9019948F929F92AF9213
:1021B000BF92CF92DF92EF92FF920F931F93CF9334
:1021C000DF93EC015B014A0169017801E881F98143
:1021D0000284F385E02D1995C80CD91C86010150A5
:1021E0001109E881F9810488F589E02D9501A401A0
:1021F000B501CE011995E881F9810688F789E02DAE
:10220000CE01DF91CF911F910F91FF90EF90DF9062
:10221000CF90BF90AF909F908F901994EF92FF92C4
:102220000F931F93DC01ED91FC9100A0F1A1E02D33
:1022300019951F910F91FF90EF9008950F931F93A1
:10224000DC01ED91FC91068CF78DE02D19951F9125
:102250000F9108950F931F93DC01ED91FC91048C75
:10226000F58DE02D19951F910F910895DC01ED91E9
:10227000FC910084F185E02D19943F924F925F927A
:102280006F927F928F929F92AF92BF92CF92DF9286
:10229000EF92FF920F931F93CF93DF935C017B012B
:1022A0004A016901390187E0680E711C93E0759459
:1022B00067949A95E1F72B01400E511E10E000E063
:1022C000312CD0E0C0E0CE0187709927330C892BE8
:1022D00059F4FE0183E0F595E7958A95E1F7E00F63
:1022E000F11FE80DF91D349037FE0AC021E030E0FF
:1022F000A701B5016C0F7D1F8DE298E00E94361199
:102300002196CC16DD06F9F68FEFE81AF80A060DCD
:10231000171DE414F504A9F6DF91CF911F910F91D9
:10232000FF90EF90DF90CF90BF90AF909F908F90F5
:102330007F906F905F904F903F9008952F923F92C3
:102340004F925F926F927F928F929F92AF92BF92C5
:10235000CF92DF92EF92FF920F931F93CF93DF9371
:1023600000D000D0CDB7DEB73C016A013E832D839B
:10237000FC82EB825801A41AB50AB7FE03C0B194DF
:10238000A194B1088D809E80861A970A97FE03C09B
:102390009194819491088A149B045CF0902F812F72
:1023A0000D811E819D838E839C2D8D2D6B01692F48
:1023B000782F0C151D055CF09D818E817E836D83C9
:1023C000692F782F902F812F8601C92ED82E1601C4
:1023D000201A310A2B012D813E81421A530A57FEE1
:1023E00003C0519441945108710137FE03C03FEF7F
:1023F000E31AF30AF594E7948D819E818617970777
:102400005CF5A1E0B0E0BA83A983C016D1064CF117
:10241000D301ED91FC910484F585E02D2B813C8165
:10242000A8016D817E818A149B041CF04D815E8120
:10243000B801C3011995E418F508F7FE0AC02D810B
:102440003E8189819A81280F391F3E832D83E20CBA
:10245000F31C0F5F1F4FD9CF2FEF3FEF3A83298334
:10246000D4CF26960FB6F894DEBF0FBECDBFDF9156
:10247000CF911F910F91FF90EF90DF90CF90BF9081
:10248000AF909F908F907F906F905F904F903F9014
:102490002F900895DC0180E0615090F09D91982785
:1024A000E92FEF70F0E0EC5BFC4F2491E92FE2950F
:1024B000EF70F0E0EC5AFC4FE491822F8E27ECCFC6
:1024C0000895DC012C911196ED91FC91F894818195
:1024D000822B81839281322F30959323928387E0E0
:1024E00090E00197F1F781818323818383E290E07B
:1024F0000197F1F790817894EFECF0E03197F1F7E4
:10250000922381E009F480E00895FC01908101802C
:10251000F281E02D292F209560FF14C0F89482816C
:10252000822382838181892B8183A3E2B0E011978A
:10253000F1F78281982B9283789487ED90E0019750
:10254000F1F70895F8948281822382838181892B17
:102550008183AFEFB0E01197F1F78281982B9283DE
:1025600078948FE090E0EBCFDF92EF92FF920F93A1
:102570001F93CF93DF93EC01D62EE42E08E010E0FA
:10258000FF24F39461E08D2D8F2109F460E0CE01EA
:102590000E948512FF0C01501109A1F7E11010C033
:1025A000F894E981FA8191818881809589238183DA
:1025B000E981FA8192818881809589238283789448
:1025C000DF91CF911F910F91FF90EF90DF900895D1
:1025D000EF92FF920F931F93CF93DF938C017B01B8
:1025E00040E065E50E94B412E70188E0E80EF11CC6
:1025F000699140E0C8010E94B412CE15DF05C1F711
:10260000DF91CF911F910F91FF90EF900895FC0102
:1026100090810180F281E02DF8948181292F20950D
:102620008223818378943DE743E050E0315029F1E3
:10263000DA011197F1F780818923C1F3F89482813F
:10264000822382838181892B81837894ABE7B7E0F1
:102650001197F1F7F894818182238183A3E1B1E09E
:102660001197F1F78081982381E009F080E0789458
:10267000E3E6F6E03197F1F7089580E00895CF9210
:10268000DF92EF92FF92CF93DF93EC0189859A85D9
:102690000E94071340E06CEC89859A850E94B41271
:1026A000488164E489859A850E94B4128C818823CC
:1026B000E1F0EB818D818823F9F0888181111CC0C4
:1026C0000E94F3096B017C0189859A850E94611241
:1026D000813059F00E94F3096C197D098E099F0918
:1026E0006E3E72408105910578F3DF91CF91FF90A6
:1026F000EF90DF90CF900895E9508EEE92E0E330B6
:1027000038F4F0E0EE0FFF1FE55EFD4F8081918110
:102710006C01990FEE08FF088981882321F060E0A1
:102720008A810E94BC08C701B6010E94C009898144
:102730008823D9F261E08A81DF91CF91FF90EF90F9
:10274000DF90CF900C94BC084F925F926F927F9273
:102750008F929F92AF92BF92CF92DF92EF92FF92B1
:102760000F931F93CF93DF938C017B01EA01FC0150
:10277000818592850E9407138823D9F1B701F8015A
:10278000818592850E94E81240E06EEBF801818518
:1027900092850E94B4126E015E01F9E0AF0EB11C89
:1027A0007E01F8018184928488E0682E712C512C7E
:1027B00044244394C4010E94611281115428440CA2
:1027C000F1E06F1A7108B1F7F70151927F01AE166F
:1027D000BF0639F7F801818592850E940713813081
:1027E00041F4F60181916F01811105C0EE15FF05DD
:1027F000C1F790E008C068E0CE010E944A1291E063
:1028000028852813F6CF892FDF91CF911F910F9143
:10281000FF90EF90DF90CF90BF90AF909F908F9000
:102820007F906F905F904F9008958EBD00000DB423
:1028300007FEFDCF8EB508958FEF0C9415140F93FE
:102840001F93CF93DF93EC010E94F3098B010E9449
:102850001C148F3F69F00E94F309601B710B6C1709
:102860007D07A8F380E0DF91CF911F910F9108952C
:1028700081E0F9CFFC01DB0112968D919C911397B9
:102880009383828387E392E09183808314968C9173
:102890001497848315968C911597858316964D9180
:1028A0005D916D917C9119974683578360877187FD
:1028B0001A964D915D916D917C911D97428753873A
:1028C000648775871E964D915D916D917C915197AE
:1028D00046875787608B718B52968C915297828B6B
:1028E00053964D915D916D917C915697438B548B8E
:1028F000658B768B57964D915D916D917C915A9732
:10290000478B508F618F728F5B968D919C91948FC6
:10291000838F08950895DC015996ED91FC913097CD
:10292000B9F083899489A589B689428553856485E0
:102930007585841B950BA60BB70B811520E89207B4
:10294000A105B10538F08FEF9FE7A0E0B0E0089552
:1029500090E080E00895DC0159968D919C9100975C
:1029600039F0DC01ED91FC910480F581E02D1994A2
:1029700090E080E00895CF93DF931F92CDB7DEB74C
:102980006983DC01ED91FC910280F381E02D41E04F
:1029900050E0BE016F5F7F4F19950F90DF91CF918F
:1029A0000895CF93CFB7F8948091DE03811127C0AB
:1029B000E5E3F9E08491E5EDF8E09491E82FF0E0AB
:1029C000EE0FFF1FEC58F74FA591B491EC91E9235E
:1029D00021F461E085E30E94BC0861E085E30E9488
:1029E00048098CB580618CBD8CB580648CBD61E07C
:1029F00084E30E94480961E083E30E9448098091D2
:102A0000DE038F5F8093DE03CFBFCF9108952091C7
:102A1000BB03260F3327331F21323105ECF42091FD
:102A20005306FC0190E080E0243069F082E00895D4
:102A3000A091BB032191AC0145565C4FA40FB52F6B
:102A4000B11D2C930196861798F38091BB03680FF4
:102A50006093BB0380E0089581E0089510925306CF
:102A600081E08093520610922D0661E084E10E947D
:102A7000BC0861E085E10E94BC08E9EBF0E08081E0
:102A80008E7F808380818D7F808388E48093B800EF
:102A900085E48093BC00089510922C0610922B06BA
:102AA00010925A0610927C060E942E1585E897E037
:102AB00090932A068093290686E897E0909328064B
:102AC000809327060895CF93DF9391E090939A0324
:102AD0008823B9F0C091B800D091BA008091BC00B1
:102AE0008A7B8093BC0060E084E10E94BC0860E0C7
:102AF00085E10E94BC080E942E15D093BA00C093B5
:102B0000B800DF91CF9108958F929F92AF92BF92BC
:102B1000CF92DF92EF92FF920F931F93CF93DF93A9
:102B2000D0917C06D13208F0D7C0182FC0917B0617
:102B30000E949B096B017C018091530681116BC03F
:102B400082E080935306109352068FEF80935106D4
:102B500010925006D0934F06ABE5B6E0EFE2F6E0F8
:102B600080E0D81391C010922E0680912E06CC0FD3
:102B7000C82BC0932E0680912D06813009F088C0A5
:102B800010922D060E949B096B017C0180912E06FC
:102B90008093BB008091550690915606A0915706F0
:102BA000B0915806892B8A2B8B2BA1F00E949B0990
:102BB00000915506109156062091570630915806FF
:102BC0006C197D098E099F09061717072807390711
:102BD00008F442C08091BC0083FDD8CF85EC80937F
:102BE000BC000E949B096B017C01809153068230DE
:102BF00009F450C0809151068F3F09F46FC0809155
:102C00005106803209F46CC080915106803309F47A
:102C100069C084E026C08091550690915606A09127
:102C20005706B0915806892B8A2B8B2B09F484CF39
:102C30000E949B098090550690905606A0905706DA
:102C4000B09058066C197D098E099F098616970663
:102C5000A806B90608F070CF809154060E9463154B
:102C600085E010925A0610927C0610925906DF9168
:102C7000CF911F910F91FF90EF90DF90CF90BF9079
:102C8000AF909F908F9008959D9191938F5F69CFA2
:102C900085EEA5CF8091550690915606A0915706D6
:102CA000B0915806892B8A2B8B2B09F49ECF0E945A
:102CB0009B090091550610915606209157063091B8
:102CC00058066C197D098E099F09061717072807F2
:102CD000390708F08ACFC0CF81E0C3CF80E0C1CFF1
:102CE00082E0BFCF83E0BDCFE0912C0680912B0620
:102CF000E81730F4F0E0E251FC4F808190E0089555
:102D00008FEF9FEF089590912C0680912B062FEF67
:102D10003FEF981748F4E92FF0E0E251FC4F208193
:102D200030E09F5F90932C06C901089580912B0697
:102D300090912C06891B990B0895CF92DF92EF9208
:102D4000FF920F931F93CF93DF937C01CB018A01F6
:102D500020915906222389F0EB016B01C40ED51E88
:102D6000CC15DD0569F06991D701ED91FC910190D9
:102D7000F081E02DC7011995F3CF642F0E9407154C
:102D8000C801DF91CF911F910F91FF90EF90DF90DD
:102D9000CF900895CF93DF931F92CDB7DEB76983AD
:102DA000209159062223F9F020917C06203258F018
:102DB00021E030E0FC013383228390E080E00F903B
:102DC000DF91CF91089580915A06E82FF0E0E55AFF
:102DD000F94F998190838F5F80935A0680937C0688
:102DE00081E090E0ECCF61E0CE0101960E940715F2
:102DF000F7CF81E00C948415EF92FF920F931F930D
:102E0000CF93DF937C01C62F80914A0890914B08A5
:102E1000009709F459C020914E0831E030935906CB
:102E200020937B0610925A0610927C06DC01ED91ED
:102E3000FC910190F081E02D60E019958701EE246E
:102E4000E394F12CD1E0C15080914A0890914B0855
:102E5000CF3F91F1B0E2EB16F104D8F00E94F916E1
:102E600080914A0890914B0820914E08D0935906C2
:102E700020937B0610925A0610927C06DC01ED919D
:102E8000FC910190F081E02D60E01995EE24E3942F
:102E9000F12C80914A0890914B08F8016491DC0173
:102EA000ED91FC910190F081E02D1995BFEFEB1AA7
:102EB000FB0A0F5F1F4FC7CFDF91CF911F910F917B
:102EC000FF90EF900C94F916E0915A08F0915B088E
:102ED0009081809160088095892380838701C1500B
:102EE00008F438C0F80184912091480830914908CD
:102EF000232B29F00E9415140F5F1F4FF0CF28E0FD
:102F000030E040E8E0915608F091570890915E0853
:102F1000582F5423D9F05081952B9083E091580875
:102F2000F0915908908150915F08952B9083E09122
:102F30005808F0915908508190915F089095952319
:102F40009083469521503109E9F6D6CF508190956E
:102F50009523E3CFDF91CF911F910F91FF90EF90D9
:102F600008951F93CF93DF93EC018D8D9E8D009775
:102F700021F1162F29A131E03093590620937B06C9
:102F800010925A0610927C06DC01ED91FC910190A2
:102F9000F081E02D60E019958D8D9E8DDC01ED9125
:102FA000FC910190F081E02D612F19958D8D9E8D02
:102FB000DF91CF911F910C94F916ADA5BEA59C9100
:102FC0008BA9809589238C938B8D9C8D892B31F0D7
:102FD000862FDF91CF911F910C94151428E030E0DB
:102FE00080E8A9A5BAA599A9462F4823C1F04C911C
:102FF000942B9C93ABA5BCA59C914AA9942B9C9324
:10300000ABA5BCA54C919AA9909594239C938695C9
:103010002150310931F7DF91CF911F9108954C91E3
:1030200090959423E6CF90E080E00895AF92BF9210
:10303000CF92DF92EF92FF920F931F93CF93DF9384
:10304000EC0188819981892B89F06EBD0DB407FE52
:10305000FDCFBEB48B2DDF91CF911F910F91FF90CB
:10306000EF90DF90CF90BF90AF90089588859985BD
:1030700011E0892B09F010E8AA24A394862F81235C
:1030800009F0A12C062F2C813D814E815F8160E2E9
:1030900071EA87E090E00E941B46F22EB02EE12CF0
:1030A000C22ED12CFF2019F0C6010E9490098A85FA
:1030B000877F09F042C08D858F3F89F0902F912343
:1030C00081E009F480E08A1551F0EF85F8898F8955
:1030D000992369F19081892B8083AA24A394E9899B
:1030E000FA898081998D892B8083FF2019F0C60190
:1030F0000E9490098E858F3F39F0EB89FC89808191
:10310000988D892309F0E12AE989FA899081898DCE
:103110008095892380838E858F3F09F0BE2C88851A
:103120009985892BB9F5110F1111BCCF93CF9081DF
:10313000809589238083A12CD2CFE989FA89808167
:10314000998D892B8083FF2019F0C6010E94900978
:103150008D858F3F49F0EF85F8898F89902F9123D6
:10316000A9F09081892B8083E989FA899081898DE2
:103170008095892380838E858F3F69F2EB89FC8956
:103180008081988D892339F2E12AC5CF908180957D
:103190008923E9CF1695C8CF089561E0FC018481A9
:1031A0000E94BC088091DF0381111092DF03089513
:1031B000FC0183858F3F19F061E00C94BC080895F1
:1031C0008CBD9DBD0895DF92EF92FF920F931F93E8
:1031D000CF93DF9380914A0890914B08892B09F493
:1031E00098C0209162083091630840916408509122
:1031F000650860E074E284EF90E00E941B46205175
:1032000031094109510956954795379527952093DE
:10321000B80065E08CE29EE00E94FC1660913108E7
:1032200061508DE298E00E94B117209133083091EF
:103230003408C901079697FD079633E09595879561
:103240003A95E1F72091310830913208829F800150
:10325000839F100D929F100D1124C0914C08D091A6
:103260004D0880914A0890914B080C0F1D1F009744
:1032700009F48FC020914E0831E030935906209315
:103280007B0610925A0610927C06DC01ED91FC91AF
:103290000190F081E02D60E41995EE24E394F12C87
:1032A000DD24D39480914A0890914B080C171D0798
:1032B00009F446C0B0E2EB16F104D8F00E94F9160A
:1032C00080914A0890914B0820914E08D09259065F
:1032D00020937B0610925A0610927C06DC01ED9139
:1032E000FC910190F081E02D60E41995EE24E394C7
:1032F000F12C80914A0890914B086991DC01ED9185
:10330000FC910190F081E02D1995BFEFEB1AFB0ABB
:10331000C9CF8091480890914908892B31F080915C
:103320006B0890916C080E94E018E0915C08F091A5
:103330005D0890818091610880958923808369CFA1
:103340000E94F91680914A0890914B08892B09F444
:1033500061C02091660830916708409168085091DB
:10336000690860E074E284EF90E00E941B462051FF
:10337000310941095109569547953795279520936D
:10338000B800DF91CF911F910F91FF90EF90DF90E8
:103390000895E0915A08F0915B088081909160084F
:1033A000892B80830C171D0769F2899120914808A9
:1033B00030914908232B19F00E941514F3CF28E00F
:1033C00030E040E8E0915608F091570890915E088F
:1033D000582F5423D9F05081952B9083E0915808B1
:1033E000F0915908908150915F08952B9083E0915E
:1033F0005808F0915908508190915F089095952355
:103400009083469521503109E9F6CCCF50819095B3
:103410009523E3CFE0915C08F0915D088081909165
:103420006108892B8083ADCF1F93CF93DF93EC018D
:10343000162F8D8D9E8D892BB1F12DA93EA94FA9F7
:1034400058AD60E074E284EF90E00E941B4620518A
:10345000310941095109569547953795279520938C
:10346000B80066EA111167EACE010E94B1178D8D8E
:103470009E8D892B41F129AD3AAD4BAD5CAD60E03D
:1034800074E284EF90E00E941B462051310941090B
:10349000510956954795379527952093B800DF91A8
:1034A000CF911F9108958B8D9C8D892B21F08EAD2E
:1034B0009FAD0E94E018EFA5F8A990818CA9809596
:1034C00089238083CECFEFA5F8A980819CA9892B81
:1034D0008083E5CFCF93DF93EC018091DF038111EF
:1034E00009C081E08093DF0380911A0790911B0748
:1034F0000E94E01860E08C81DF91CF910C94BC08B1
:103500008F929F92AF92BF92FF920F931F93CF9390
:10351000DF93EC01F62E49015A018E81882389F050
:103520008F8198859C012F5F3F4F38872F83823092
:10353000924018F40E941C14F3CFCE010E94CD18C3
:103540001E82CE010E946A1A8CE291E00E941F1432
:103550008F2D80640E94151408E110E0D501C4018C
:10356000002E04C0B695A795979587950A94D2F733
:103570000E94151408501109083F8FEF180771F7C2
:1035800085E9FF2021F028E087E8F2128FEF0E9402
:10359000151410E00E941C148A8787FF04C01F3F87
:1035A00011F01F5FF7CFDF91CF911F910F91FF9027
:1035B000BF90AF909F908F900895AF92BF92CF929F
:1035C000DF92EF92FF920F931F93CF93DF93EC0163
:1035D0006901C801820F931F8130924050F58E819E
:1035E000882379F088819981AA81BB818417950706
:1035F000A607B70731F48F819885C816D90608F059
:1036000042C0488359836A837B838B85833039F03A
:1036100089E0440F551F661F771F8A95D1F79A01DD
:10362000AB0161E1CE010E94801A882389F083E01A
:103630008D83CE010E94CD1880E0DF91CF911F9144
:103640000F91FF90EF90DF90CF90BF90AF900895D3
:103650000E94F3095B010E941C148A878F3F69F462
:103660000E94F3096A197B096D327140A0F38FE063
:103670008D83CE010E94CD18DCCF8E3F89F4188651
:103680001F8281E08E838F8198858C159D0550F473
:103690000E941C148F819885019698878F83F3CFA1
:1036A0008DE0E6CF6701E00EF11E0E941C14F601CA
:1036B00081936F01EE15FF05C1F78F819885080F83
:1036C000191F18870F838985882319F00115124067
:1036D000A0F08E81882389F08F8198859C012F5FCF
:1036E0003F4F38872F838230924018F40E941C1479
:1036F000F3CFCE010E94CD181E8281E09ECFCF92E3
:10370000DF92EF92FF920F93CF93DF93EC01690169
:1037100082E1411551056105710599F08B85833072
:1037200039F089E0440F551F661F771F8A95D1F73E
:103730009A01AB0168E1CE010E94801A882319F03A
:1037400084E08D832DC08EEF0E94151476018EEFDC
:10375000D81AF70181917F010E941514EC14FD0421
:10376000C1F78FEF0E9415148FEF0E9415140E946D
:103770001C148A878F71853071F4011116C0CE0137
:103780000E94CD1881E0DF91CF910F91FF90EF90D3
:10379000DF90CF90089581E18D83CE010E94CD18F6
:1037A000CE010E94CD1880E0EECF88E592E00E9425
:1037B0001F14811102C085E1C4CF20E030E0A901CF
:1037C0006DE0CE010E94801A882311F084E1B9CF08
:1037D0000E941C148111FACFD2CF0F934091E103C4
:1037E0005091E2036091E3037091E40341155105A8
:1037F0006105710599F0082F25E234E080912506D6
:10380000909126060E947F1B882349F01092E103C5
:103810001092E2031092E3031092E40381E00F910F
:1038200008950F93CF93C82F8091E003811105C0B5
:10383000C1E08C2FCF910F910895409100025091DB
:10384000010260910202709103020C2F25E234E024
:1038500080912506909126060E947F1B811102C04F
:10386000C0E0E7CFCC2321F381E00E94ED1B882349
:10387000B9F31092E003DDCF8F929F92AF92BF9287
:10388000EF92FF920F931F93CF934B015C01C42FD4
:103890008091000290910102A0910202B091030276
:1038A00088159905AA05BB0551F181E00E94111CFC
:1038B00081110BC080E0CF911F910F91FF90EF908D
:1038C000BF90AF909F908F90089585E2E82E84E09E
:1038D000F82E00E012E030E020E0B501A401809174
:1038E0002506909126060E94DD1A882319F38092FE
:1038F000000290920102A0920202B0920302409153
:10390000E0034C2B4093E00381E0D5CF8F929F9250
:10391000AF92BF92CF92DF92EF92FF92CF932CE1C2
:1039200037E03093260620932506882309F46DC0DE
:1039300040E060E070E0CB010E943C1C81110BC0B4
:1039400080E0CF91FF90EF90DF90CF90BF90AF904D
:103950009F908F9008958091E3058F7789F78091EC
:10396000EF059091F005A091F105B091F205843634
:103970009105A105B10520F3C090EB05D090EC05B1
:10398000E090ED05F090EE05C114D104E104F104DE
:10399000B9F240E0C701B6010E943C1C882381F2C5
:1039A00080913004909131048115924049F6A091A4
:1039B0003504AA2329F2609133047091340461150F
:1039C000710509F4BDCF20913204222309F4B8CF48
:1039D000A0933A0720932C0790E080E030E0E1E0EC
:1039E000F0E0C82FAF01082E02C0440F551F0A9403
:1039F000E2F72417350769F041E0480F0196893056
:103A0000910579F7409335079BCFC12CD12C7601D6
:103A1000C0CF8093350720913B0430913C0450E0A7
:103A200040E02115310541F42091490430914A04C8
:103A300040914B0450914C0420932D0730932E0756
:103A400040932F075093300746015701860E971E6B
:103A5000A11CB11C80923B0790923C07A0923D07AD
:103A6000B0923E07E0913604F0913704F09341079D
:103A7000E0934007B0E00E94CE44DC01CB01880D0A
:103A8000991DAA1DBB1D8093420790934307A093E5
:103A90004407B093450725E0EE0FFF1F2A95E1F795
:103AA000E150FE4FEF2FFF27E6958E0F9F1FA11DC0
:103AB000B11D8093360790933707A0933807B093D2
:103AC00039078090380490903904B12CA12C8114CE
:103AD000910441F48090450490904604A0904704DE
:103AE000B0904804C81AD90AEA0AFB0AC80CD91CC3
:103AF000EA1CFB1C04C0F694E794D794C794CA95BB
:103B0000D2F7C0923107D0923207E0923307F09299
:103B1000340785EFC8168FE0D806E104F10428F4D5
:103B20008CE080933F0781E00CCF80E125EFC21647
:103B30002FEFD206E104F104A0F38091510490919B
:103B40005204A0915304B09154048093420790937F
:103B50004307A0934407B093450780E2E2CF4F921A
:103B60005F926F927F928F929F92AF92BF92CF920D
:103B7000DF92EF92FF920F931F93CF93DF93EC01AD
:103B8000423051056105710590F480E0DF91CF91DD
:103B90001F910F91FF90EF90DF90CF90BF90AF906B
:103BA0009F908F907F906F905F904F900895898540
:103BB0009A85AB85BC850196A11DB11D841795071B
:103BC000A607B70710F3CB88DC88ED88FE888F89BD
:103BD000803109F042C0BB27A72F962F852F4801BF
:103BE00059012A013B01C80ED91EEA1EFB1E809115
:103BF000000290910102A0910202B0910302C81646
:103C0000D906EA06FB0699F58F898031C1F5B30123
:103C1000A201552766277727440F551F4B5D5B4F41
:103C2000FA01918280828091E00381608093E003B9
:103C30008A89823080F08D819E81AF81B8858C0D1C
:103C40009D1DAE1DBF1D8093E1039093E203A093E1
:103C5000E303B093E40381E099CFDB01CA01E7E01D
:103C6000B695A79597958795EA95D1F7B8CF40E097
:103C7000C701B6010E943C1C8111C6CF86CFB3019B
:103C8000A2014F77552766277727440F551F440F0A
:103C9000551F4B5D5B4FFA0180829182A282B382F5
:103CA000C2CF8F929F92AF92BF92CF92DF92EF924C
:103CB000FF920F931F93CF93DF93FC018185928531
:103CC000A385B4850196A11DB11D84179507A6078C
:103CD000B70770F480E0DF91CF911F910F91FF90B3
:103CE000EF90DF90CF90BF90AF909F908F9008950E
:103CF00083889488A588B6888789803189F5BB2711
:103D0000A72F962F852FE9016A017B018F01BC0146
:103D1000CD01680D791D8A1D9B1D80900002909039
:103D20000102A0900202B090030286169706A80630
:103D3000B90601F5F8018789803111F5DD24EE24FB
:103D4000FF24F601EE0FFF1FEB5DFB4F8081918199
:103D5000B0E0A0E088839983AA83BB8381E0BBCFD6
:103D6000DB01CA01C7E0B695A79597958795CA95D7
:103D7000D1F7C9CF40E00E943C1C8111DBCFAACF14
:103D8000E894C7F8DD24EE24FF24F601EE0FFF1FB0
:103D9000EE0FFF1FEB5DFB4F80819181A281B3810C
:103DA000BF70D8CF4F925F926F927F92AF92BF92C7
:103DB000CF92DF92EF92FF920F931F93CF93DF93F7
:103DC00000D01F92CDB7DEB78C0149835A836B8335
:103DD0007C835901C12CD12C7601412C82E0582ED4
:103DE000612C712C49815A816B817C819E012F5FEE
:103DF0003F4FC8010E94511E882339F1F801858583
:103E0000A301920104C0220F331F441F551F8A953E
:103E1000D2F7DA01C901C80ED91EEA1EFB1E49817C
:103E20005A816B817C818789803111F188EF9FEF06
:103E3000AFEFBFE0481759076A077B0798F2F50113
:103E4000C082D182E282F38281E00F900F900F90C6
:103E50000F90DF91CF911F910F91FF90EF90DF9026
:103E6000CF90BF90AF907F906F905F904F900895EC
:103E700088EF9FEFA0E0B0E0DDCFCF93DF93FC01B0
:103E80002581222321F080E0DF91CF910895EC017C
:103E900080913F07803159F582E08583178A108E23
:103EA000118E128E8091400790914107B0E0A0E002
:103EB00025E0880F991FAA1FBB1F2A95D1F7838B76
:103EC000948BA58BB68B88E297E09C8F8B8F81E0DB
:103ED0008C831E821F82188619861A861B861C8672
:103EE0001D861E861F86188A198A1A8ACDCF8032AF
:103EF00051F683E0858340914207509143076091DA
:103F0000440770914507478B508F618F728F9F01D7
:103F10002D5E3F4F88E297E00E94D21E8111D3CFE1
:103F2000B2CF8F929F92AF92BF92CF92DF92EF92D9
:103F3000FF920F931F93CF93DF93EC018D8181113B
:103F40000EC080E0DF91CF911F910F91FF90EF9015
:103F5000DF90CF90BF90AF909F908F9008950B8986
:103F60001C892D893E89041715072607370748F352
:103F70004A015B01823031F48A869B86AC86BD861D
:103F800081E0E0CF81149104A104B10449F41E82C0
:103F90001F82188619861A861B861C861D86F0CFFE
:103FA0000A851B852C853D85EB8DFC8D858590E0F4
:103FB0000996B901A8014150510961097109082EFA
:103FC00004C076956795579547950A94D2F7750181
:103FD0006401E1E0CE1AD108E108F10804C0F694CA
:103FE000E794D794C7948A95D2F7C416D506E60607
:103FF000F70620F0012B022B032B11F58F89988DEA
:10400000A98DBA8D8E839F83A887B9878E010A5F99
:104010001F4FC114D104E104F10409F4ADCF4E8166
:104020005F816885798598018B8D9C8D0E94511EDA
:1040300091E0C91AD108E108F1088111EACF81CFD6
:10404000C41AD50AE60AF70AE1CF3F924F925F926F
:104050006F927F928F929F92AF92BF92CF92DF9298
:10406000EF92FF920F931F93CF93DF93CDB7DEB7FD
:104070002C970FB6F894DEBF0FBECDBF5C01DC01FC
:104080005B968D909C905C9716964D905D906D9090
:104090007C901997411451046104710409F468C0BB
:1040A000BFEF4B1A5B0A6B0A7B0A312CF401818546
:1040B0009285A385B4859C01AD012F5F3F4F4F4F83
:1040C0005F4F29873A874B875C87730162011D82A6
:1040D0001E821F821886F40181859285A385B4858E
:1040E0002D813E814F815885281739074A075B0784
:1040F00008F056C089859A85AB85BC858C159D05D1
:10410000AE05BF0550F482E0C82ED12CE12CF12C75
:1041100092E0492E512C612C712C9E012F5F3F4F54
:10412000B701A601C4010E94511E8823C9F18981EB
:104130009A81AB81BC81892B8A2B8B2B09F12601BB
:1041400037019FEF491A590A690A790A2D813E8180
:104150004F8158852F5F3F4F4F4F5F4F2D833E83D9
:104160004F8358873FEFC31AD30AE30AF30AB3CF4A
:10417000F40140805180628073803324339496CF61
:10418000C414D504E604F70409F70FEF1FEF2FEF6F
:104190003FE0B701A601C4010E94AF1D811119C003
:1041A00080E02C960FB6F894DEBF0FBECDBFDF9136
:1041B000CF911F910F91FF90EF90DF90CF90BF9024
:1041C000AF909F908F907F906F905F904F903F90B7
:1041D0000895D50116964D915D916D917C91199739
:1041E000411551056105710539F097018601C4013A
:1041F0000E94AF1D8823A1F2D5011696CD92DD92C3
:10420000ED92FC921997332051F0D701C601019627
:10421000A11DB11DF40180839183A283B383F501B5
:104220008789908DA18DB28D892B8A2B8B2B39F4A8
:104230008481C78AD08EE18EF28E80688483F501F6
:1042400084818062848381E0ACCF2F923F924F9231
:104250005F926F927F928F929F92AF92BF92CF9216
:10426000DF92EF92FF920F931F93CF93DF9300D0D3
:10427000CDB7DEB7FC018581811118C08FEF9FEFAC
:104280000F900F900F90DF91CF911F910F91FF90A2
:10429000EF90DF90CF90BF90AF909F908F907F90E6
:1042A0006F905F904F903F902F900895848180FF92
:1042B000E5CF438954896589768982859385A4856C
:1042C000B585312C212C481759076A077B0719F04F
:1042D00022242394312C6F012101CE0101963C014F
:1042E000DF011696BB83AA834114510409F4C5C0AB
:1042F000F60142855385648575854A01F1E09F2268
:10430000D6015B968D919C915C978A019B01E9E0B7
:104310003695279517950795EA95D1F71596EC915F
:10432000E230E9F5FC01628D738D848D958D600F0F
:10433000711F821F931FA12C22E0B22EA818B9086A
:104340004A145B0408F45201F601248126FD04C0DE
:10435000A114F2E0BF0671F4009100021091010275
:104360002091020230910302061717072807390728
:1043700009F05EC040E00E943C1C882309F47ECF17
:10438000C4018B5D9B4FD3019C012A0D3B1DFC0199
:104390002E173F0709F46CC041914D93F9CFDC0112
:1043A0001496BC90BA94B0228114910479F4B1109F
:1043B0000DC0452B462B472B69F5F6018789908D5B
:1043C000A18DB28D86839783A087B187D6015B9636
:1043D000ED91FC915C9716966D917D918D919C91DC
:1043E00019976250710981099109258504C0660FEA
:1043F000771F881F991F2A95D2F706851785208970
:104400003189600F711F821F931F6B0D711D811DFC
:10441000911D91CFD60116964D915D916D917C9134
:1044200019972A813B810E94511E8111CFCF26CF3F
:10443000730185019401AB01BC0180912506909127
:1044400026060E94DD1A882309F418CF6A0C7B1C0B
:10445000F60182859385A485B5858A0D9B1DA11DD6
:10446000B11D82879387A487B5874A185B083CCF24
:10447000281B390B620E731EEBCF2A94232809F0F8
:10448000FDCE898190E0FCCEFC01818D928D00975C
:1044900011F00C9425218FEF9FEF08950F931F9338
:1044A000CF93DF93EC01898D9A8D10E000E00097A7
:1044B00099F00E9425218C010F3F100769F0898D2A
:1044C0009A8DFC014285538564857585415051095B
:1044D000610971090E94911FC801DF91CF911F915D
:1044E0000F9108951F93CF93DF93FC012581222321
:1044F000D1F1162FEC01848187FF2AC0668577856C
:104500008089918941E00E943C1C882361F1EA89FD
:1045100080E2E89FF0011124EB5DFB4F309719F129
:104520008D81823040F48B899C89AD89BE89848FCE
:10453000958FA68FB78F8F89988D938F828F8F8954
:10454000988DA98DBA8DB58BA48B8C818F778C8338
:10455000111103C08C818F7E8C83812FDF91CF91CD
:104560001F910C94111C80E0DF91CF911F91089551
:10457000FF920F931F93CF93DF93EC018D818130D6
:1045800041F090E080E0DF91CF911F910F91FF907B
:1045900008958C8181FFF5CF82FD1BC00091250617
:1045A00010912606C8010E946A1A0E941C14F82E57
:1045B000C8010E94CD188FEFF812E3CF8C8185FFE0
:1045C0001BC060E0CE010E9472228C818F7D8C83A3
:1045D000D8CF4B895C896D897E898A859B85AC851E
:1045E000BD8584179507A607B707C1F2CE010E94C3
:1045F000911F8111D3CFC5CF4091E1035091E203C8
:104600006091E3037091E403452B462B472B21F087
:1046100080E00E94ED1BB5CF80618C832A853B85AD
:10462000317080E092E0821B930BADCFCF93DF938C
:10463000EC0161E00E947222882311F01D8281E06A
:10464000DF91CF910895FC01818D928D009719F033
:1046500061E00C94722208952F923F924F925F92E4
:104660006F927F928F929F92AF92BF92CF92DF9282
:10467000EF92FF920F931F93CF93DF9300D01F927F
:104680001F92CDB7DEB77C015B01342E5D83DC0168
:1046900015968C911597813009F0CEC014962C9008
:1046A00021FECAC022FCB4C0C32CDD8022947FE06E
:1046B00027222094B22DB1702B2ED7011A964D913E
:1046C0005D916D917C911D97C114D10409F428C1AD
:1046D0005B968D919C915C97FC0174807A948A0121
:1046E0009B0169E036952795179507956A95D1F74F
:1046F00070228A011170711020C001151105E9F4B2
:1047000016964D915D916D917C91199741155105CA
:104710006105710509F099C057968D919D910D9095
:10472000BC91A02D0097A105B10509F0B0C0C7014B
:104730000E942520882309F47FC080E092E0801B3E
:10474000910B46018C159D0508F44C01D7015B9631
:104750004D915C915C9716968D919D910D90BC91B9
:10476000A02D0297A109B109FA01258504C0880F7F
:10477000991FAA1FBB1F2A95D2F7468557856089C6
:104780007189840F951FA61FB71F9C01AD01270DCE
:10479000311D411D511D29013A01811432E093065A
:1047A00009F07BC08091000290910102A091020269
:1047B000B091030284159505A605B70559F48FEF4E
:1047C0009FEFDC018093000290930102A09302020C
:1047D000B0930302022D9501B301A2018091250639
:1047E000909126060E947F1B882331F19EEFB91A13
:1047F000C818D908F70182859385A485B585880DE9
:10480000991DA11DB11D82879387A487B58755CFB8
:10481000F701438954896589768982859385A485C2
:10482000B585481759076A077B0709F43DCFC701CB
:104830000E94911F811138CF81E090E0D70113963B
:104840009C938E93129780E007C09E012F5F3F4F8D
:104850000E94511E811102C090E079C089819A8125
:10486000AB81BC81F701238D348DF901278948EF95
:104870005FEF60E070E0203121F048EF5FEF6FEF15
:104880007FE084179507A607B70708F050CFF70118
:1048900086839783A087B18750CF0115110599F5BD
:1048A000D7011A964D915D916D917C911D9753960C
:1048B0008D919D910D90BC91A02D481759076A07C5
:1048C0007B0708F181E00E94111C882309F4B4CF12
:1048D0004092000250920102609202027092030222
:1048E0008091E00381608093E003C8018B5D9B4F62
:1048F000D5019C01280D391DFC012E173F0759F0E9
:104900004D914193FACF41E0C301B2010E943C1C9A
:104910008111EBCF91CF281B390BA20EB31E68CFAC
:10492000F70183899489A589B68984179507A60715
:10493000B70738F48481438B548B658B768B806802
:104940008483F701848183FD1AC0832D9D810F909C
:104950000F900F900F900F90DF91CF911F910F91BB
:10496000FF90EF90DF90CF90BF90AF909F908F908F
:104970007F906F905F904F903F902F90089561E0EF
:10498000C7010E947222882309F456CFDECFCF934D
:10499000DF931F92CDB7DEB7698341E050E0BE01DF
:1049A0006F5F7F4F0E942C230F90DF91CF9108956E
:1049B000CF93DF93EC01E98DFA8D309749F481E0D4
:1049C00090E09B838A8390E080E0DF91CF9108950F
:1049D00013821282898D9A8D0E942C23E98DFA8D83
:1049E00022813381232B59F7F0CFCF93DF93EC0152
:1049F00088819981892B31F0EA81FB8180819181C5
:104A00000E94E0188B858F3F29F060E0DF91CF9105
:104A10000C94BC08DF91CF9108958F929F92AF9232
:104A2000BF92CF92DF92EF92FF920F931F93CF939B
:104A3000DF937C014B016A01B22EA32E0E94F52464
:104A4000E401C80CD91CCC15DD0569F4CB2DDA2D99
:104A50000C0F1D1FC017D10759F06FEFC7010E943F
:104A600016188993F7CF6991C7010E941618EBCFEA
:104A7000C7010E94D81881E0DF91CF911F910F915B
:104A8000FF90EF90DF90CF90BF90AF909F908F906E
:104A900008958F929F92AF92BF92CF92DF92EF9242
:104AA000FF920F931F93CF93DF937C01B62EA72E17
:104AB0006A0149010E94F524E401080D191DC0177F
:104AC000D10761F4CB2DDA2DCC0EDD1ECC15DD0522
:104AD00051F06991C7010E941618F8CF6991C7017A
:104AE0000E941618ECCFC7010E94D81881E0DF9110
:104AF000CF911F910F91FF90EF90DF90CF90BF90DB
:104B0000AF909F908F9008951F93CF93DF93EA010A
:104B1000122FDC0111968D919C91DC01ED91FC919D
:104B20000280F381E02D1995C817D90729F4812F48
:104B30000E94841591E0811190E0892FDF91CF913F
:104B40001F910895CF92DF92EF92FF920F931F93E0
:104B5000CF93DF931F921F92CDB7DEB7FC0147873B
:104B6000508B618B728B8285882371F14487452F2E
:104B7000562F672F7727882349F143877F018BE0E2
:104B8000E80EF11C9681878199838A83C080D18049
:104B9000C114D10409F443C0018510E098012E5FCF
:104BA0003F4FD60114968D919C918217930780F404
:104BB00080E00F900F90DF91CF911F910F91FF90A8
:104BC000EF90DF90CF9008954387D1CF4487D6CF21
:104BD000F60181819281208131E030935906209342
:104BE0007B0610925A0610927C060115110541F4BD
:104BF00021E042E050E0B701C6010E948425D9CFF0
:104C0000DC01ED91FC910280F381E02DA801BE0151
:104C10006F5F7F4F19950817190751F6E9CFA281E9
:104C2000B381109729F224813581018510E023306A
:104C3000310579F48E7F89839A830F5F1F4F9E0120
:104C40002F5F3F4F42E050E0B701CD010E94492560
:104C5000B0CF2115310519F49F779983F0CF223019
:104C6000310511F49068F9CF2130310541F79F7774
:104C70009064F3CFCF93DF93EC018B818823A9F06D
:104C800089819A81288131E03093590620937B06EF
:104C900010925A0610927C060E94F91691E081113A
:104CA00090E0892FDF91CF9108950E944C1581E00B
:104CB0008B83CE010E943A26982F8111E1CFF1CF4C
:104CC0004F925F926F927F928F929F92AF92BF921C
:104CD000CF92DF92EF92FF92CF93DF93EC018C8D16
:104CE0008823D1F00E949B090E94AF4320E034E268
:104CF00044E759E40E9455456B017C012D8D3E8DA2
:104D00004F8D58A10E94E844688F798F8A8F9B8FBE
:104D1000CD8EDE8EEF8EF8A26C897D898E899F897B
:104D2000288D398D4A8D5B8D0E9410446B017C016A
:104D3000AC019B0163EF74E085E390E40E9455456C
:104D40002B013C01A7019601C701B6010E94104446
:104D50009B01AC0160E070E080E890E40E94554562
:104D60004B015C0120E030E040E85FE3C301B201A9
:104D70000E94E944A50194010E94E9446B017C0171
:104D8000AC019B0160E070E080E89FE30E94554524
:104D9000688779878A879B87A701960160E070E022
:104DA00080E090E40E9455456C877D878E879F87C1
:104DB00088859985AA85BB85888B998BAA8BBB8BA7
:104DC000A5019401C501B4010E94E9449B01AC0115
:104DD00060E070E080E090E40E94E8449058A70111
:104DE00096010E945545688379838A839B83A3013A
:104DF000920160E070E080E89FE30E94E844A50132
:104E000094010E94E9449058A70196010E945545DB
:104E10006C837D838E839F83DF91CF91FF90EF9092
:104E2000DF90CF90BF90AF909F908F907F906F90CA
:104E30005F904F9008954F925F926F927F928F9202
:104E40009F92AF92BF92CF92DF92EF92FF920F9319
:104E50001F93CF93DF9300D000D0CDB7DEB79E83F2
:104E60008D836A017B01FC01848D882319F0CF01B9
:104E70000E946026ED81FE8115A616A617A610AA2F
:104E8000C1A2D2A2E3A2F4A230E020E0F901EE0F29
:104E9000FF1FEE0FFF1FCD80DE80EC0DFD1D60813A
:104EA00071818281938189010F5F1F4FD801AA0F01
:104EB000BB1FAA0FBB1FAC0DBD1D9D962D913D9133
:104EC0004D915C91D09780849184A284B38441A059
:104ED00052A063A074A0F601C5A4D6A4E7A4F0A8CC
:104EE000C982DA82EB82FC820E9410446B017C0151
:104EF000A3019201C501B4010E9410449B01AC01C1
:104F0000C701B6010E94E94429813A814B815C8145
:104F10000E94E944ED81FE8165A776A787A790AB43
:104F200021E030E00230110509F0B0CF60897189CD
:104F30008289938921A532A543A554A5C5A4D6A4E9
:104F4000E7A4F0A80E941044A70196010E94E9443A
:104F5000ED81FE8165A776A787A790AB81A992A96D
:104F6000A3A9B4A985AB96ABA7ABB0AF85A196A119
:104F7000A7A1B0A581A792A7A3A7B4A785A596A529
:104F8000A7A5B0A981AB92ABA3ABB4AB81A192A111
:104F9000A3A1B4A185A396A3A7A3B0A765A576A551
:104FA00087A590A926960FB6F894DEBF0FBECDBF99
:104FB000DF91CF911F910F91FF90EF90DF90CF90F5
:104FC000BF90AF909F908F907F906F905F904F9029
:104FD000089586E30E947909BC01990F880B990B0B
:104FE0000E94B143AB01BC018EE997E00E941B27F0
:104FF0006093190470931A0480931B0490931C040B
:1050000087E30E947909BC01990F880B990B0E94D4
:10501000B143AB01BC0185E697E00E941B2760937A
:105020001504709316048093170490931804089540
:10503000BF92CF92DF92EF92FF920F931F93CF9385
:10504000DF93EC01B62EC72E8D85811105C0CE01F0
:105050000E94071381110EC01B861D861C8680E0EE
:10506000DF91CF911F910F91FF90EF90DF90CF9044
:10507000BF90089540E060EFCE010E94B41201E0BD
:10508000E12CD12C11E0CE010E946112F82ECE014C
:105090000E94611291E0F91218C0813099F5113423
:1050A000D8F2DB86D11002C081E08D878B81882306
:1050B00099F22396EB2DFC2DCF010896299121938F
:1050C000E817F907D9F781E0CBCFEE2DF0E0F81221
:1050D0000FC08B851817A0F4DE01AE0FBF1F13960B
:1050E0008C91802379F4F12C193008F41C87D12E8F
:1050F000EC0FFD1F8381902F9095892383830AC035
:105100008113F1CFFE01EE0DF11D8381802B83838E
:10511000FF24F3946F2DCE010E9485121F5F000FB4
:1051200011F4E39401E087E08E1508F0ACCFB7CF1F
:105130000F931F93CF93DF93CDB7DEB761970FB671
:10514000F894DEBF0FBECDBF8C01DC011996ED9146
:10515000FC911A971386158614861286118610867E
:1051600017821682158214821382BE01665F7F4FFA
:1051700019968D919C910E94182881110FC060E0B2
:1051800070E08EEF92EC61960FB6F894DEBF0FBE22
:10519000CDBFDF91CF911F910F91089567E0CE01B0
:1051A0000A960E944A1299898913E9CFAE014F5F8E
:1051B0005F4FBE01665F7F4FC8010E94A413882322
:1051C000F1F26A8170E0762F6627770F770F770FFD
:1051D0002981B8E02B9F90011124262B372B8A853B
:1051E0008031E1F468856623C9F070E08F81FB01AE
:1051F000E81BF109CF019695982F882797958795F9
:105200000E940746CB018097B90153E0660F771FD4
:105210005A95E1F760789C01260F371F2138F4EE8C
:105220003F070CF4ACCFB901330F880B990B0E94E8
:10523000B14320E030E040E05CE30E941044A3CFA3
:10524000EF92FF920F931F93CF93DF93CDB7DEB70B
:1052500061970FB6F894DEBF0FBECDBF8C01DC01A5
:105260001996ED91FC911A9713861586148612866D
:105270001186108617821682158214821382179661
:105280001C92179718961C92FF24F394BE01665F38
:105290007F4FF801818592850E941828882309F4A0
:1052A00072C067E0CE010A960E944A12998989135A
:1052B000EDCFD80117968C9117978F5F17968C9327
:1052C0008A85883231F008F045C0803111F0823291
:1052D000E9F6F80180858F5F80878081811124C085
:1052E000818592850E940713BE01665F7F4FD801BA
:1052F00019968D919C910E94E81240E064EBF801B0
:10530000818592850E94B412D80119968D919C9145
:105310000E946112E82EF801818592850E94071390
:10532000E11002C0D801FC928A858031F1F0AE0113
:105330004F5F5F4FBE01665F7F4FC8010E94A4139D
:10534000882331F08D818F33D1F058F48F31C9F03B
:1053500080E00EC08B3309F4BCCF823409F096CFC5
:10536000B8CF8F3521F08F3799F78CE001C08BE0F3
:10537000F8019381981708F089CF838387CF8AE05B
:10538000F7CF89E0F5CF61960FB6F894DEBF0FBE78
:10539000CDBFDF91CF911F910F91FF90EF900895B6
:1053A000CF92DF92EF92FF921F93CF93DF93EC01A6
:1053B00080E2689FF0011124EB5DFB4F93859171B2
:1053C00061F0842F827449F080E0DF91CF911F91CA
:1053D000FF90EF90DF90CF900895142F6A8B80910B
:1053E000000290910102A0910202B09103028E8707
:1053F0009F87A88BB98BC488D588F12CE12C7601C6
:10540000DD24CC24CF8AD88EE98EFA8E828D938DBE
:10541000B0E0A0E0AC01BD014C295D296E297F29D7
:105420004F8B588F698F7A8F83858871B1F4848D03
:10543000958DA68DB78D8B8B9C8BAD8BBE8B81E0B4
:105440008D831F701C831E821F82188619861A8600
:105450001B861C861D8681E0B8CF803109F0B4CF51
:105460009E012D5E3F4F8B8D9C8D0E94D21E882306
:1054700009F4AACF84E0E4CF2091330830913408B6
:10548000C901079697FD079623E0959587952A957C
:10549000E1F72091310830913208829FA001839F6B
:1054A000500D929F500D112470E060E080914C08E7
:1054B00090914D080C947A48FB0101900020E9F787
:1054C0003197AF01461B570BDC01ED91FC91028037
:1054D000F381E02D19948F929F92AF92BF92EF9239
:1054E000FF920F931F93CF93DF93CDB7DEB7A197B2
:1054F0000FB6F894DEBF0FBECDBF7C01FA01CB0121
:1055000019A2223008F42AE08E010F5D1F4F822E6F
:10551000912CB12CA12CBF01A50194010E941B4626
:10552000F901CA016A300CF5605DD8016E938D01F6
:10553000232B242B252B79F790E080E0109721F086
:10554000BD01C7010E945C2AA1960FB6F894DEBF88
:105550000FBECDBFDF91CF911F910F91FF90EF90C4
:10556000BF90AF909F908F900895695CDECF8F922F
:105570009F92AF92BF92CF92DF92EF92FF920F93E2
:105580001F93CF93DF93EC016A017B01AB0196017E
:10559000CB01B6010E9402466FE872E0811126C07D
:1055A00046015701E894B7F82FEF3FEF4FE75FE769
:1055B000C501B4010E94024681110CC02FEF3FEFDC
:1055C0004FE75FE7C501B4010E94AA4363E972E0B7
:1055D000181664F02FEF3FEF4FE75FE4C701B60105
:1055E0000E94FD4518168CF467E972E0CE01DF9148
:1055F000CF911F910F91FF90EF90DF90CF90BF90D0
:10560000AF909F908F900C945C2A2FEF3FEF4FE765
:105610005FECC701B6010E94AA4387FDE5CF20E0F9
:1056200030E0A901C701B6010E94AA4310E000E0E2
:1056300087FF0DC0E881F9810190F081E02D6DE2D6
:10564000CE0119958C01F7FAF094F7F8F0942AE05E
:1056500037ED43EA5BE3C701B6010E94E9444B0121
:105660005C010E94CE456B017C010E94AF439B010F
:10567000AC01C501B4010E94E8444B015C012AE081
:10568000B701A601CE010E946B2A080F191FE881FD
:10569000F9810190F081E02D6EE2CE011995080F9D
:1056A000191F20E030E040E251E4C501B4010E943E
:1056B00010444B015C010E94CE456B01F12CE12CA2
:1056C0002AE0B701A601CE010E946B2A080F191F1C
:1056D000C701B6010E94AF439B01AC01C501B401F3
:1056E0000E94E84420E030E040E251E40E9410448F
:1056F0000E94CE45AB0170E060E02AE0CE010E943E
:105700006B2A800F911FDF91CF911F910F91FF9016
:10571000EF90DF90CF90BF90AF909F908F900895C3
:105720000F931F93CF93DF93EC010E945C2A8C01AF
:105730006BE972E0CE010E945C2A800F911FDF911D
:10574000CF911F910F9108950F931F93CF93DF93E4
:10575000EC01FB014481558160817181E881F9810F
:105760000280F381E02D19958C016BE972E0CE0186
:105770000E945C2A800F911FDF91CF911F910F91A2
:1057800008950C945C2ACF93DF93EC018881998172
:10579000009711F00E94F546198218821D821C8222
:1057A0001B821A82DF91CF910895FC018081918143
:1057B000009711F00C94F54608950E945F480F93EE
:1057C0001F93CF93DF93EC0188819981009759F063
:1057D0002A813B812617370730F081E0DF91CF9196
:1057E0001F910F9108958B016F5F7F4F0E947E473D
:1057F000009759F0998388831B830A832C813D810C
:10580000232B59F7FC011082E8CF80E0E7CFEF921D
:10581000FF920F931F93CF93DF936115710541F4AE
:1058200080E0DF91CF911F910F91FF90EF9008954D
:1058300041155105B1F07B01EC010C811D81040F74
:10584000151FB8010E94DF2B882351F3288139816D
:105850008C819D81B701820F931F0E948C481D830C
:105860000C8381E0DECFEF92FF920F931F93CF93D3
:10587000DF93CDB7DEB72E970FB6F894DEBF0FBE1D
:10588000CDBF7C01CB01BA012AE08E010F5F1F4F13
:10589000A8010E941841F80101900020E9F7319712
:1058A000AF01401B510BB801C7010E94072C8111A9
:1058B00003C0C7010E94C32BC7012E960FB6F894F0
:1058C000DEBF0FBECDBFDF91CF911F910F91FF9033
:1058D000EF900895CF93DF93EC01FB01019000203E
:1058E000E9F73197AF01461B570B0E94072C811136
:1058F00003C0CE010E94C32BCE01DF91CF9108954A
:10590000EF92FF920F931F93CF93DF93EC018617D3
:10591000970781F0FB01008111810115110539F014
:10592000E480F580B7010E94DF2B81110BC0CE010E
:105930000E94C32BCE01DF91CF911F910F91FF9059
:10594000EF900895FD82EC82B801888199810E94D0
:105950008C48F0CFEF92FF920F931F93CF93DF937A
:10596000EC017B01198218821B821A821D821C8223
:10597000FB0101900020E9F731978F01061B170BFF
:10598000B8010E94DF2B811109C0CE01DF91CF91B8
:105990001F910F91FF90EF900C94C32B1D830C83EC
:1059A000B70188819981DF91CF911F910F91FF906D
:1059B000EF900C948C483F924F925F926F927F923F
:1059C0008F929F92AF92BF92CF92DF92EF92FF920F
:1059D0000F931F93CF93DF9300D000D000D01F927E
:1059E0001F92CDB7DEB77C01FE013196CE010C9639
:1059F0006F0130E23193E817F907E1F7DA0130E09F
:105A000087E09D91B92E992309F43CC09E32F1F4B0
:105A10008A30C9F480E02B960FB6F894DEBF0FBE33
:105A2000CDBFDF91CF911F910F91FF90EF90DF904D
:105A3000CF90BF90AF909F908F907F906F905F902E
:105A40004F903F90089538E08AE0DBCFEAE1F3E041
:105A50004491442321F031969413FACFDBCF83177E
:105A6000C8F24FED490F4E35A8F64FE9490F4A31BC
:105A700018F440EEB42EB90EF601E30FF11DB0821A
:105A80003F5FBFCF8981803229F2322E8B01DB014B
:105A90005B968D919C915C97F701948F838F1696FE
:105AA0001D921D921D921C921997FB01128613865E
:105AB00014861586F80182859385A485B58543896A
:105AC00054896589768984179507A607B70708F072
:105AD0004DC025E0B695A795979587952A95D1F75E
